{
  "_format": "hh-sol-artifact-1",
  "contractName": "AirdropAmoy",
  "sourceName": "contracts/staking/AirdropAmoy.sol",
  "abi": [
    {
      "inputs": [
        {
          "internalType": "address",
          "name": "_mycelToken",
          "type": "address"
        },
        {
          "internalType": "address",
          "name": "_nftContract",
          "type": "address"
        }
      ],
      "stateMutability": "nonpayable",
      "type": "constructor"
    },
    {
      "anonymous": false,
      "inputs": [
        {
          "indexed": true,
          "internalType": "address",
          "name": "user",
          "type": "address"
        },
        {
          "indexed": false,
          "internalType": "uint256",
          "name": "tokenId",
          "type": "uint256"
        },
        {
          "indexed": false,
          "internalType": "uint256",
          "name": "amount",
          "type": "uint256"
        },
        {
          "indexed": false,
          "internalType": "uint8",
          "name": "level",
          "type": "uint8"
        }
      ],
      "name": "Claimed",
      "type": "event"
    },
    {
      "anonymous": false,
      "inputs": [
        {
          "indexed": true,
          "internalType": "address",
          "name": "previousOwner",
          "type": "address"
        },
        {
          "indexed": true,
          "internalType": "address",
          "name": "newOwner",
          "type": "address"
        }
      ],
      "name": "OwnershipTransferred",
      "type": "event"
    },
    {
      "inputs": [],
      "name": "MAX_TOKEN_ID",
      "outputs": [
        {
          "internalType": "uint256",
          "name": "",
          "type": "uint256"
        }
      ],
      "stateMutability": "view",
      "type": "function"
    },
    {
      "inputs": [],
      "name": "REWARD_L1_L2",
      "outputs": [
        {
          "internalType": "uint256",
          "name": "",
          "type": "uint256"
        }
      ],
      "stateMutability": "view",
      "type": "function"
    },
    {
      "inputs": [],
      "name": "REWARD_L3",
      "outputs": [
        {
          "internalType": "uint256",
          "name": "",
          "type": "uint256"
        }
      ],
      "stateMutability": "view",
      "type": "function"
    },
    {
      "inputs": [
        {
          "internalType": "uint256",
          "name": "tokenId",
          "type": "uint256"
        }
      ],
      "name": "canClaim",
      "outputs": [
        {
          "internalType": "bool",
          "name": "",
          "type": "bool"
        }
      ],
      "stateMutability": "view",
      "type": "function"
    },
    {
      "inputs": [
        {
          "internalType": "uint256",
          "name": "tokenId",
          "type": "uint256"
        }
      ],
      "name": "claim",
      "outputs": [],
      "stateMutability": "nonpayable",
      "type": "function"
    },
    {
      "inputs": [
        {
          "internalType": "uint256[]",
          "name": "tokenIds",
          "type": "uint256[]"
        }
      ],
      "name": "claimMultiple",
      "outputs": [],
      "stateMutability": "nonpayable",
      "type": "function"
    },
    {
      "inputs": [
        {
          "internalType": "uint256",
          "name": "",
          "type": "uint256"
        }
      ],
      "name": "claimed",
      "outputs": [
        {
          "internalType": "bool",
          "name": "",
          "type": "bool"
        }
      ],
      "stateMutability": "view",
      "type": "function"
    },
    {
      "inputs": [
        {
          "internalType": "address",
          "name": "user",
          "type": "address"
        }
      ],
      "name": "getClaimableTokens",
      "outputs": [
        {
          "internalType": "uint256[]",
          "name": "",
          "type": "uint256[]"
        }
      ],
      "stateMutability": "view",
      "type": "function"
    },
    {
      "inputs": [
        {
          "internalType": "uint256",
          "name": "tokenId",
          "type": "uint256"
        }
      ],
      "name": "getRewardForToken",
      "outputs": [
        {
          "internalType": "uint256",
          "name": "",
          "type": "uint256"
        }
      ],
      "stateMutability": "view",
      "type": "function"
    },
    {
      "inputs": [
        {
          "internalType": "uint256",
          "name": "tokenId",
          "type": "uint256"
        }
      ],
      "name": "getTokenLevel",
      "outputs": [
        {
          "internalType": "uint8",
          "name": "",
          "type": "uint8"
        }
      ],
      "stateMutability": "view",
      "type": "function"
    },
    {
      "inputs": [],
      "name": "mycelToken",
      "outputs": [
        {
          "internalType": "contract IERC20",
          "name": "",
          "type": "address"
        }
      ],
      "stateMutability": "view",
      "type": "function"
    },
    {
      "inputs": [],
      "name": "nftContract",
      "outputs": [
        {
          "internalType": "contract IERC721Enumerable",
          "name": "",
          "type": "address"
        }
      ],
      "stateMutability": "view",
      "type": "function"
    },
    {
      "inputs": [],
      "name": "owner",
      "outputs": [
        {
          "internalType": "address",
          "name": "",
          "type": "address"
        }
      ],
      "stateMutability": "view",
      "type": "function"
    },
    {
      "inputs": [],
      "name": "renounceOwnership",
      "outputs": [],
      "stateMutability": "nonpayable",
      "type": "function"
    },
    {
      "inputs": [],
      "name": "totalClaimed",
      "outputs": [
        {
          "internalType": "uint256",
          "name": "",
          "type": "uint256"
        }
      ],
      "stateMutability": "view",
      "type": "function"
    },
    {
      "inputs": [
        {
          "internalType": "address",
          "name": "newOwner",
          "type": "address"
        }
      ],
      "name": "transferOwnership",
      "outputs": [],
      "stateMutability": "nonpayable",
      "type": "function"
    },
    {
      "inputs": [],
      "name": "withdrawRemaining",
      "outputs": [],
      "stateMutability": "nonpayable",
      "type": "function"
    }
  ],
  "bytecode": "0x60806040523480156200001157600080fd5b50604051620022bb380380620022bb83398181016040528101906200003791906200021e565b620000576200004b620000e860201b60201c565b620000f060201b60201c565b6001808190555081600260006101000a81548173ffffffffffffffffffffffffffffffffffffffff021916908373ffffffffffffffffffffffffffffffffffffffff16021790555080600360006101000a81548173ffffffffffffffffffffffffffffffffffffffff021916908373ffffffffffffffffffffffffffffffffffffffff160217905550505062000265565b600033905090565b60008060009054906101000a900473ffffffffffffffffffffffffffffffffffffffff169050816000806101000a81548173ffffffffffffffffffffffffffffffffffffffff021916908373ffffffffffffffffffffffffffffffffffffffff1602179055508173ffffffffffffffffffffffffffffffffffffffff168173ffffffffffffffffffffffffffffffffffffffff167f8be0079c531659141344cd1fd0a4f28419497f9722a3daafe3b4186f6b6457e060405160405180910390a35050565b600080fd5b600073ffffffffffffffffffffffffffffffffffffffff82169050919050565b6000620001e682620001b9565b9050919050565b620001f881620001d9565b81146200020457600080fd5b50565b6000815190506200021881620001ed565b92915050565b60008060408385031215620002385762000237620001b4565b5b6000620002488582860162000207565b92505060206200025b8582860162000207565b9150509250929050565b61204680620002756000396000f3fe608060405234801561001057600080fd5b506004361061010b5760003560e01c8063a4ab65da116100a2578063d54ad2a111610071578063d54ad2a1146102a8578063d56d229d146102c6578063dbe7e3bd146102e4578063ee38db9514610314578063f2fde38b1461031e5761010b565b8063a4ab65da1461020c578063b44176281461022a578063c95c0d8914610248578063d011645c146102785761010b565b80636da612d8116100de5780636da612d8146101aa578063715018a6146101c85780638da5cb5b146101d25780639051cce9146101f05761010b565b80631b831ead1461011057806326f4a4c014610140578063379607f51461015e578063422165541461017a575b600080fd5b61012a6004803603810190610125919061154d565b61033a565b6040516101379190611642565b60405180910390f35b61014861060f565b60405161015591906116c3565b60405180910390f35b6101786004803603810190610173919061170a565b610635565b005b610194600480360381019061018f919061170a565b6109b2565b6040516101a19190611746565b60405180910390f35b6101b2610aa8565b6040516101bf9190611746565b60405180910390f35b6101d0610aae565b005b6101da610ac2565b6040516101e79190611770565b60405180910390f35b61020a600480360381019061020591906117f0565b610aeb565b005b610214610e59565b6040516102219190611746565b60405180910390f35b610232610e66565b60405161023f9190611746565b60405180910390f35b610262600480360381019061025d919061170a565b610e73565b60405161026f9190611858565b60405180910390f35b610292600480360381019061028d919061170a565b610f9c565b60405161029f919061188f565b60405180910390f35b6102b0611117565b6040516102bd9190611746565b60405180910390f35b6102ce61111d565b6040516102db91906118cb565b60405180910390f35b6102fe60048036038101906102f9919061170a565b611143565b60405161030b9190611858565b60405180910390f35b61031c611163565b005b6103386004803603810190610333919061154d565b6112c0565b005b60606000600360009054906101000a900473ffffffffffffffffffffffffffffffffffffffff1673ffffffffffffffffffffffffffffffffffffffff166370a08231846040518263ffffffff1660e01b81526004016103999190611770565b602060405180830381865afa1580156103b6573d6000803e3d6000fd5b505050506040513d601f19601f820116820180604052508101906103da91906118fb565b905060008167ffffffffffffffff8111156103f8576103f7611928565b5b6040519080825280602002602001820160405280156104265781602001602082028036833780820191505090505b5090506000805b8381101561055c576000600360009054906101000a900473ffffffffffffffffffffffffffffffffffffffff1673ffffffffffffffffffffffffffffffffffffffff16632f745c5988846040518363ffffffff1660e01b8152600401610494929190611957565b602060405180830381865afa1580156104b1573d6000803e3d6000fd5b505050506040513d601f19601f820116820180604052508101906104d591906118fb565b90506004600082815260200190815260200160002060009054906101000a900460ff16158015610506575060018110155b801561051457506150148111155b15610548578084848151811061052d5761052c611980565b5b6020026020010181815250508280610544906119de565b9350505b508080610554906119de565b91505061042d565b5060008167ffffffffffffffff81111561057957610578611928565b5b6040519080825280602002602001820160405280156105a75781602001602082028036833780820191505090505b50905060005b82811015610602578381815181106105c8576105c7611980565b5b60200260200101518282815181106105e3576105e2611980565b5b60200260200101818152505080806105fa906119de565b9150506105ad565b5080945050505050919050565b600260009054906101000a900473ffffffffffffffffffffffffffffffffffffffff1681565b61063d611343565b6001811015801561065057506150148111155b61068f576040517f08c379a000000000000000000000000000000000000000000000000000000000815260040161068690611a83565b60405180910390fd5b6004600082815260200190815260200160002060009054906101000a900460ff16156106f0576040517f08c379a00000000000000000000000000000000000000000000000000000000081526004016106e790611aef565b60405180910390fd5b3373ffffffffffffffffffffffffffffffffffffffff16600360009054906101000a900473ffffffffffffffffffffffffffffffffffffffff1673ffffffffffffffffffffffffffffffffffffffff16636352211e836040518263ffffffff1660e01b81526004016107629190611746565b602060405180830381865afa15801561077f573d6000803e3d6000fd5b505050506040513d601f19601f820116820180604052508101906107a39190611b24565b73ffffffffffffffffffffffffffffffffffffffff16146107f9576040517f08c379a00000000000000000000000000000000000000000000000000000000081526004016107f090611b9d565b60405180910390fd5b600061080482610f9c565b9050600060038260ff161461082257680821ab0d441498000061082d565b683635c9adc5dea000005b905060016004600085815260200190815260200160002060006101000a81548160ff021916908315150217905550806005600082825461086d9190611bbd565b92505081905550600260009054906101000a900473ffffffffffffffffffffffffffffffffffffffff1673ffffffffffffffffffffffffffffffffffffffff1663a9059cbb33836040518363ffffffff1660e01b81526004016108d1929190611957565b6020604051808303816000875af11580156108f0573d6000803e3d6000fd5b505050506040513d601f19601f820116820180604052508101906109149190611c1d565b610953576040517f08c379a000000000000000000000000000000000000000000000000000000000815260040161094a90611c96565b60405180910390fd5b3373ffffffffffffffffffffffffffffffffffffffff167ffba955b7124801955d5218289768d39688a6c2af7c54181f5bf3b0b0e7a4aa8984838560405161099d93929190611cb6565b60405180910390a250506109af611392565b50565b600060018210806109c4575061501482115b806109ec57506004600083815260200190815260200160002060009054906101000a900460ff165b156109fa5760009050610aa3565b3073ffffffffffffffffffffffffffffffffffffffff1663d011645c836040518263ffffffff1660e01b8152600401610a339190611746565b602060405180830381865afa925050508015610a6d57506040513d601f19601f82011682018060405250810190610a6a9190611d19565b60015b610a7a5760009050610aa3565b60038160ff1614610a9457680821ab0d4414980000610a9f565b683635c9adc5dea000005b9150505b919050565b61501481565b610ab661139b565b610ac06000611419565b565b60008060009054906101000a900473ffffffffffffffffffffffffffffffffffffffff16905090565b610af3611343565b6000805b83839050811015610d10576000848483818110610b1757610b16611980565b5b9050602002013590506001811080610b30575061501481115b80610b5857506004600082815260200190815260200160002060009054906101000a900460ff165b15610b635750610cfd565b3373ffffffffffffffffffffffffffffffffffffffff16600360009054906101000a900473ffffffffffffffffffffffffffffffffffffffff1673ffffffffffffffffffffffffffffffffffffffff16636352211e836040518263ffffffff1660e01b8152600401610bd59190611746565b602060405180830381865afa158015610bf2573d6000803e3d6000fd5b505050506040513d601f19601f82011682018060405250810190610c169190611b24565b73ffffffffffffffffffffffffffffffffffffffff1614610c375750610cfd565b6000610c4282610f9c565b9050600060038260ff1614610c6057680821ab0d4414980000610c6b565b683635c9adc5dea000005b905060016004600085815260200190815260200160002060006101000a81548160ff0219169083151502179055508085610ca59190611bbd565b94503373ffffffffffffffffffffffffffffffffffffffff167ffba955b7124801955d5218289768d39688a6c2af7c54181f5bf3b0b0e7a4aa89848385604051610cf193929190611cb6565b60405180910390a25050505b8080610d08906119de565b915050610af7565b5060008111610d54576040517f08c379a0000000000000000000000000000000000000000000000000000000008152600401610d4b90611d92565b60405180910390fd5b8060056000828254610d669190611bbd565b92505081905550600260009054906101000a900473ffffffffffffffffffffffffffffffffffffffff1673ffffffffffffffffffffffffffffffffffffffff1663a9059cbb33836040518363ffffffff1660e01b8152600401610dca929190611957565b6020604051808303816000875af1158015610de9573d6000803e3d6000fd5b505050506040513d601f19601f82011682018060405250810190610e0d9190611c1d565b610e4c576040517f08c379a0000000000000000000000000000000000000000000000000000000008152600401610e4390611c96565b60405180910390fd5b50610e55611392565b5050565b680821ab0d441498000081565b683635c9adc5dea0000081565b60006001821080610e85575061501482115b15610e935760009050610f97565b6004600083815260200190815260200160002060009054906101000a900460ff1615610ec25760009050610f97565b600360009054906101000a900473ffffffffffffffffffffffffffffffffffffffff1673ffffffffffffffffffffffffffffffffffffffff16636352211e836040518263ffffffff1660e01b8152600401610f1d9190611746565b602060405180830381865afa925050508015610f5757506040513d601f19601f82011682018060405250810190610f549190611b24565b60015b610f645760009050610f97565b3373ffffffffffffffffffffffffffffffffffffffff168173ffffffffffffffffffffffffffffffffffffffff16149150505b919050565b6000806000600360009054906101000a900473ffffffffffffffffffffffffffffffffffffffff1673ffffffffffffffffffffffffffffffffffffffff1684604051602401610feb9190611746565b6040516020818303038152906040527fab8ece8b000000000000000000000000000000000000000000000000000000007bffffffffffffffffffffffffffffffffffffffffffffffffffffffff19166020820180517bffffffffffffffffffffffffffffffffffffffffffffffffffffffff83818316178352505050506040516110759190611e23565b600060405180830381855afa9150503d80600081146110b0576040519150601f19603f3d011682016040523d82523d6000602084013e6110b5565b606091505b5091509150816110fa576040517f08c379a00000000000000000000000000000000000000000000000000000000081526004016110f190611e86565b60405180910390fd5b8080602001905181019061110e9190611d19565b92505050919050565b60055481565b600360009054906101000a900473ffffffffffffffffffffffffffffffffffffffff1681565b60046020528060005260406000206000915054906101000a900460ff1681565b61116b61139b565b6000600260009054906101000a900473ffffffffffffffffffffffffffffffffffffffff1673ffffffffffffffffffffffffffffffffffffffff166370a08231306040518263ffffffff1660e01b81526004016111c89190611770565b602060405180830381865afa1580156111e5573d6000803e3d6000fd5b505050506040513d601f19601f8201168201806040525081019061120991906118fb565b905060008111156112bd57600260009054906101000a900473ffffffffffffffffffffffffffffffffffffffff1673ffffffffffffffffffffffffffffffffffffffff1663a9059cbb61125a610ac2565b836040518363ffffffff1660e01b8152600401611278929190611957565b6020604051808303816000875af1158015611297573d6000803e3d6000fd5b505050506040513d601f19601f820116820180604052508101906112bb9190611c1d565b505b50565b6112c861139b565b600073ffffffffffffffffffffffffffffffffffffffff168173ffffffffffffffffffffffffffffffffffffffff1603611337576040517f08c379a000000000000000000000000000000000000000000000000000000000815260040161132e90611f18565b60405180910390fd5b61134081611419565b50565b600260015403611388576040517f08c379a000000000000000000000000000000000000000000000000000000000815260040161137f90611f84565b60405180910390fd5b6002600181905550565b60018081905550565b6113a36114dd565b73ffffffffffffffffffffffffffffffffffffffff166113c1610ac2565b73ffffffffffffffffffffffffffffffffffffffff1614611417576040517f08c379a000000000000000000000000000000000000000000000000000000000815260040161140e90611ff0565b60405180910390fd5b565b60008060009054906101000a900473ffffffffffffffffffffffffffffffffffffffff169050816000806101000a81548173ffffffffffffffffffffffffffffffffffffffff021916908373ffffffffffffffffffffffffffffffffffffffff1602179055508173ffffffffffffffffffffffffffffffffffffffff168173ffffffffffffffffffffffffffffffffffffffff167f8be0079c531659141344cd1fd0a4f28419497f9722a3daafe3b4186f6b6457e060405160405180910390a35050565b600033905090565b600080fd5b600080fd5b600073ffffffffffffffffffffffffffffffffffffffff82169050919050565b600061151a826114ef565b9050919050565b61152a8161150f565b811461153557600080fd5b50565b60008135905061154781611521565b92915050565b600060208284031215611563576115626114e5565b5b600061157184828501611538565b91505092915050565b600081519050919050565b600082825260208201905092915050565b6000819050602082019050919050565b6000819050919050565b6115b9816115a6565b82525050565b60006115cb83836115b0565b60208301905092915050565b6000602082019050919050565b60006115ef8261157a565b6115f98185611585565b935061160483611596565b8060005b8381101561163557815161161c88826115bf565b9750611627836115d7565b925050600181019050611608565b5085935050505092915050565b6000602082019050818103600083015261165c81846115e4565b905092915050565b6000819050919050565b600061168961168461167f846114ef565b611664565b6114ef565b9050919050565b600061169b8261166e565b9050919050565b60006116ad82611690565b9050919050565b6116bd816116a2565b82525050565b60006020820190506116d860008301846116b4565b92915050565b6116e7816115a6565b81146116f257600080fd5b50565b600081359050611704816116de565b92915050565b6000602082840312156117205761171f6114e5565b5b600061172e848285016116f5565b91505092915050565b611740816115a6565b82525050565b600060208201905061175b6000830184611737565b92915050565b61176a8161150f565b82525050565b60006020820190506117856000830184611761565b92915050565b600080fd5b600080fd5b600080fd5b60008083601f8401126117b0576117af61178b565b5b8235905067ffffffffffffffff8111156117cd576117cc611790565b5b6020830191508360208202830111156117e9576117e8611795565b5b9250929050565b60008060208385031215611807576118066114e5565b5b600083013567ffffffffffffffff811115611825576118246114ea565b5b6118318582860161179a565b92509250509250929050565b60008115159050919050565b6118528161183d565b82525050565b600060208201905061186d6000830184611849565b92915050565b600060ff82169050919050565b61188981611873565b82525050565b60006020820190506118a46000830184611880565b92915050565b60006118b582611690565b9050919050565b6118c5816118aa565b82525050565b60006020820190506118e060008301846118bc565b92915050565b6000815190506118f5816116de565b92915050565b600060208284031215611911576119106114e5565b5b600061191f848285016118e6565b91505092915050565b7f4e487b7100000000000000000000000000000000000000000000000000000000600052604160045260246000fd5b600060408201905061196c6000830185611761565b6119796020830184611737565b9392505050565b7f4e487b7100000000000000000000000000000000000000000000000000000000600052603260045260246000fd5b7f4e487b7100000000000000000000000000000000000000000000000000000000600052601160045260246000fd5b60006119e9826115a6565b91507fffffffffffffffffffffffffffffffffffffffffffffffffffffffffffffffff8203611a1b57611a1a6119af565b5b600182019050919050565b600082825260208201905092915050565b7f496e76616c696420746f6b656e20494400000000000000000000000000000000600082015250565b6000611a6d601083611a26565b9150611a7882611a37565b602082019050919050565b60006020820190508181036000830152611a9c81611a60565b9050919050565b7f416c726561647920636c61696d65640000000000000000000000000000000000600082015250565b6000611ad9600f83611a26565b9150611ae482611aa3565b602082019050919050565b60006020820190508181036000830152611b0881611acc565b9050919050565b600081519050611b1e81611521565b92915050565b600060208284031215611b3a57611b396114e5565b5b6000611b4884828501611b0f565b91505092915050565b7f4e6f74204e4654206f776e657200000000000000000000000000000000000000600082015250565b6000611b87600d83611a26565b9150611b9282611b51565b602082019050919050565b60006020820190508181036000830152611bb681611b7a565b9050919050565b6000611bc8826115a6565b9150611bd3836115a6565b9250828201905080821115611beb57611bea6119af565b5b92915050565b611bfa8161183d565b8114611c0557600080fd5b50565b600081519050611c1781611bf1565b92915050565b600060208284031215611c3357611c326114e5565b5b6000611c4184828501611c08565b91505092915050565b7f5472616e73666572206661696c65640000000000000000000000000000000000600082015250565b6000611c80600f83611a26565b9150611c8b82611c4a565b602082019050919050565b60006020820190508181036000830152611caf81611c73565b9050919050565b6000606082019050611ccb6000830186611737565b611cd86020830185611737565b611ce56040830184611880565b949350505050565b611cf681611873565b8114611d0157600080fd5b50565b600081519050611d1381611ced565b92915050565b600060208284031215611d2f57611d2e6114e5565b5b6000611d3d84828501611d04565b91505092915050565b7f4e6f2076616c6964204e46547320746f20636c61696d00000000000000000000600082015250565b6000611d7c601683611a26565b9150611d8782611d46565b602082019050919050565b60006020820190508181036000830152611dab81611d6f565b9050919050565b600081519050919050565b600081905092915050565b60005b83811015611de6578082015181840152602081019050611dcb565b60008484015250505050565b6000611dfd82611db2565b611e078185611dbd565b9350611e17818560208601611dc8565b80840191505092915050565b6000611e2f8284611df2565b915081905092915050565b7f4661696c656420746f2067657420746f6b656e206c6576656c00000000000000600082015250565b6000611e70601983611a26565b9150611e7b82611e3a565b602082019050919050565b60006020820190508181036000830152611e9f81611e63565b9050919050565b7f4f776e61626c653a206e6577206f776e657220697320746865207a65726f206160008201527f6464726573730000000000000000000000000000000000000000000000000000602082015250565b6000611f02602683611a26565b9150611f0d82611ea6565b604082019050919050565b60006020820190508181036000830152611f3181611ef5565b9050919050565b7f5265656e7472616e637947756172643a207265656e7472616e742063616c6c00600082015250565b6000611f6e601f83611a26565b9150611f7982611f38565b602082019050919050565b60006020820190508181036000830152611f9d81611f61565b9050919050565b7f4f776e61626c653a2063616c6c6572206973206e6f7420746865206f776e6572600082015250565b6000611fda602083611a26565b9150611fe582611fa4565b602082019050919050565b6000602082019050818103600083015261200981611fcd565b905091905056fea264697066735822122049f4e3a472f5ba16c16070fc1a7e35d51abd9d86ef91f0a6fc0a52a8dd420a9964736f6c63430008140033",
  "linkReferences": {},
  "deployedLinkReferences": {}
}