{
  "_format": "hh-sol-artifact-1",
  "contractName": "ForgottenNFT",
  "sourceName": "contracts/ForgottenNFT.sol",
  "abi": [
    {
      "inputs": [
        {
          "internalType": "address",
          "name": "initialOwner",
          "type": "address"
        }
      ],
      "stateMutability": "nonpayable",
      "type": "constructor"
    },
    {
      "inputs": [],
      "name": "ERC721EnumerableForbiddenBatchMint",
      "type": "error"
    },
    {
      "inputs": [
        {
          "internalType": "address",
          "name": "sender",
          "type": "address"
        },
        {
          "internalType": "uint256",
          "name": "tokenId",
          "type": "uint256"
        },
        {
          "internalType": "address",
          "name": "owner",
          "type": "address"
        }
      ],
      "name": "ERC721IncorrectOwner",
      "type": "error"
    },
    {
      "inputs": [
        {
          "internalType": "address",
          "name": "operator",
          "type": "address"
        },
        {
          "internalType": "uint256",
          "name": "tokenId",
          "type": "uint256"
        }
      ],
      "name": "ERC721InsufficientApproval",
      "type": "error"
    },
    {
      "inputs": [
        {
          "internalType": "address",
          "name": "approver",
          "type": "address"
        }
      ],
      "name": "ERC721InvalidApprover",
      "type": "error"
    },
    {
      "inputs": [
        {
          "internalType": "address",
          "name": "operator",
          "type": "address"
        }
      ],
      "name": "ERC721InvalidOperator",
      "type": "error"
    },
    {
      "inputs": [
        {
          "internalType": "address",
          "name": "owner",
          "type": "address"
        }
      ],
      "name": "ERC721InvalidOwner",
      "type": "error"
    },
    {
      "inputs": [
        {
          "internalType": "address",
          "name": "receiver",
          "type": "address"
        }
      ],
      "name": "ERC721InvalidReceiver",
      "type": "error"
    },
    {
      "inputs": [
        {
          "internalType": "address",
          "name": "sender",
          "type": "address"
        }
      ],
      "name": "ERC721InvalidSender",
      "type": "error"
    },
    {
      "inputs": [
        {
          "internalType": "uint256",
          "name": "tokenId",
          "type": "uint256"
        }
      ],
      "name": "ERC721NonexistentToken",
      "type": "error"
    },
    {
      "inputs": [
        {
          "internalType": "address",
          "name": "owner",
          "type": "address"
        },
        {
          "internalType": "uint256",
          "name": "index",
          "type": "uint256"
        }
      ],
      "name": "ERC721OutOfBoundsIndex",
      "type": "error"
    },
    {
      "inputs": [
        {
          "internalType": "address",
          "name": "owner",
          "type": "address"
        }
      ],
      "name": "OwnableInvalidOwner",
      "type": "error"
    },
    {
      "inputs": [
        {
          "internalType": "address",
          "name": "account",
          "type": "address"
        }
      ],
      "name": "OwnableUnauthorizedAccount",
      "type": "error"
    },
    {
      "anonymous": false,
      "inputs": [
        {
          "indexed": true,
          "internalType": "address",
          "name": "owner",
          "type": "address"
        },
        {
          "indexed": true,
          "internalType": "address",
          "name": "approved",
          "type": "address"
        },
        {
          "indexed": true,
          "internalType": "uint256",
          "name": "tokenId",
          "type": "uint256"
        }
      ],
      "name": "Approval",
      "type": "event"
    },
    {
      "anonymous": false,
      "inputs": [
        {
          "indexed": true,
          "internalType": "address",
          "name": "owner",
          "type": "address"
        },
        {
          "indexed": true,
          "internalType": "address",
          "name": "operator",
          "type": "address"
        },
        {
          "indexed": false,
          "internalType": "bool",
          "name": "approved",
          "type": "bool"
        }
      ],
      "name": "ApprovalForAll",
      "type": "event"
    },
    {
      "anonymous": false,
      "inputs": [
        {
          "indexed": true,
          "internalType": "address",
          "name": "previousOwner",
          "type": "address"
        },
        {
          "indexed": true,
          "internalType": "address",
          "name": "newOwner",
          "type": "address"
        }
      ],
      "name": "OwnershipTransferred",
      "type": "event"
    },
    {
      "anonymous": false,
      "inputs": [
        {
          "indexed": true,
          "internalType": "address",
          "name": "from",
          "type": "address"
        },
        {
          "indexed": true,
          "internalType": "address",
          "name": "to",
          "type": "address"
        },
        {
          "indexed": true,
          "internalType": "uint256",
          "name": "tokenId",
          "type": "uint256"
        }
      ],
      "name": "Transfer",
      "type": "event"
    },
    {
      "inputs": [],
      "name": "MAX_SUPPLY",
      "outputs": [
        {
          "internalType": "uint256",
          "name": "",
          "type": "uint256"
        }
      ],
      "stateMutability": "view",
      "type": "function"
    },
    {
      "inputs": [],
      "name": "MINT_PRICE",
      "outputs": [
        {
          "internalType": "uint256",
          "name": "",
          "type": "uint256"
        }
      ],
      "stateMutability": "view",
      "type": "function"
    },
    {
      "inputs": [
        {
          "internalType": "address",
          "name": "to",
          "type": "address"
        },
        {
          "internalType": "uint256",
          "name": "tokenId",
          "type": "uint256"
        }
      ],
      "name": "approve",
      "outputs": [],
      "stateMutability": "nonpayable",
      "type": "function"
    },
    {
      "inputs": [
        {
          "internalType": "address",
          "name": "owner",
          "type": "address"
        }
      ],
      "name": "balanceOf",
      "outputs": [
        {
          "internalType": "uint256",
          "name": "",
          "type": "uint256"
        }
      ],
      "stateMutability": "view",
      "type": "function"
    },
    {
      "inputs": [
        {
          "internalType": "uint256[]",
          "name": "tokenIds",
          "type": "uint256[]"
        },
        {
          "internalType": "string[]",
          "name": "forms",
          "type": "string[]"
        }
      ],
      "name": "evolveBatchToLevel2",
      "outputs": [],
      "stateMutability": "nonpayable",
      "type": "function"
    },
    {
      "inputs": [
        {
          "internalType": "uint256",
          "name": "tokenId",
          "type": "uint256"
        },
        {
          "internalType": "string",
          "name": "form",
          "type": "string"
        }
      ],
      "name": "evolveToLevel2",
      "outputs": [],
      "stateMutability": "nonpayable",
      "type": "function"
    },
    {
      "inputs": [
        {
          "internalType": "uint256[]",
          "name": "tokenIds",
          "type": "uint256[]"
        },
        {
          "internalType": "string",
          "name": "form",
          "type": "string"
        }
      ],
      "name": "evolveToLevel3",
      "outputs": [],
      "stateMutability": "nonpayable",
      "type": "function"
    },
    {
      "inputs": [
        {
          "internalType": "uint256",
          "name": "tokenId",
          "type": "uint256"
        }
      ],
      "name": "getApproved",
      "outputs": [
        {
          "internalType": "address",
          "name": "",
          "type": "address"
        }
      ],
      "stateMutability": "view",
      "type": "function"
    },
    {
      "inputs": [
        {
          "internalType": "uint256",
          "name": "tokenId",
          "type": "uint256"
        }
      ],
      "name": "getBranch",
      "outputs": [
        {
          "internalType": "string",
          "name": "",
          "type": "string"
        }
      ],
      "stateMutability": "view",
      "type": "function"
    },
    {
      "inputs": [
        {
          "internalType": "address",
          "name": "owner",
          "type": "address"
        }
      ],
      "name": "getTokensOfOwner",
      "outputs": [
        {
          "internalType": "uint256[]",
          "name": "tokenIds",
          "type": "uint256[]"
        },
        {
          "internalType": "uint8[]",
          "name": "levels",
          "type": "uint8[]"
        },
        {
          "internalType": "string[]",
          "name": "forms",
          "type": "string[]"
        }
      ],
      "stateMutability": "view",
      "type": "function"
    },
    {
      "inputs": [
        {
          "internalType": "address",
          "name": "owner",
          "type": "address"
        },
        {
          "internalType": "address",
          "name": "operator",
          "type": "address"
        }
      ],
      "name": "isApprovedForAll",
      "outputs": [
        {
          "internalType": "bool",
          "name": "",
          "type": "bool"
        }
      ],
      "stateMutability": "view",
      "type": "function"
    },
    {
      "inputs": [],
      "name": "level1BaseURI",
      "outputs": [
        {
          "internalType": "string",
          "name": "",
          "type": "string"
        }
      ],
      "stateMutability": "view",
      "type": "function"
    },
    {
      "inputs": [],
      "name": "level2BaseURI",
      "outputs": [
        {
          "internalType": "string",
          "name": "",
          "type": "string"
        }
      ],
      "stateMutability": "view",
      "type": "function"
    },
    {
      "inputs": [],
      "name": "level3BaseURI",
      "outputs": [
        {
          "internalType": "string",
          "name": "",
          "type": "string"
        }
      ],
      "stateMutability": "view",
      "type": "function"
    },
    {
      "inputs": [
        {
          "internalType": "address",
          "name": "to",
          "type": "address"
        },
        {
          "internalType": "uint256",
          "name": "amount",
          "type": "uint256"
        }
      ],
      "name": "mintBatch",
      "outputs": [],
      "stateMutability": "nonpayable",
      "type": "function"
    },
    {
      "inputs": [],
      "name": "name",
      "outputs": [
        {
          "internalType": "string",
          "name": "",
          "type": "string"
        }
      ],
      "stateMutability": "view",
      "type": "function"
    },
    {
      "inputs": [],
      "name": "nextTokenId",
      "outputs": [
        {
          "internalType": "uint256",
          "name": "",
          "type": "uint256"
        }
      ],
      "stateMutability": "view",
      "type": "function"
    },
    {
      "inputs": [],
      "name": "owner",
      "outputs": [
        {
          "internalType": "address",
          "name": "",
          "type": "address"
        }
      ],
      "stateMutability": "view",
      "type": "function"
    },
    {
      "inputs": [
        {
          "internalType": "uint256",
          "name": "tokenId",
          "type": "uint256"
        }
      ],
      "name": "ownerOf",
      "outputs": [
        {
          "internalType": "address",
          "name": "",
          "type": "address"
        }
      ],
      "stateMutability": "view",
      "type": "function"
    },
    {
      "inputs": [
        {
          "internalType": "uint256",
          "name": "amount",
          "type": "uint256"
        }
      ],
      "name": "publicMint",
      "outputs": [],
      "stateMutability": "payable",
      "type": "function"
    },
    {
      "inputs": [],
      "name": "renounceOwnership",
      "outputs": [],
      "stateMutability": "nonpayable",
      "type": "function"
    },
    {
      "inputs": [
        {
          "internalType": "address",
          "name": "from",
          "type": "address"
        },
        {
          "internalType": "address",
          "name": "to",
          "type": "address"
        },
        {
          "internalType": "uint256",
          "name": "tokenId",
          "type": "uint256"
        }
      ],
      "name": "safeTransferFrom",
      "outputs": [],
      "stateMutability": "nonpayable",
      "type": "function"
    },
    {
      "inputs": [
        {
          "internalType": "address",
          "name": "from",
          "type": "address"
        },
        {
          "internalType": "address",
          "name": "to",
          "type": "address"
        },
        {
          "internalType": "uint256",
          "name": "tokenId",
          "type": "uint256"
        },
        {
          "internalType": "bytes",
          "name": "data",
          "type": "bytes"
        }
      ],
      "name": "safeTransferFrom",
      "outputs": [],
      "stateMutability": "nonpayable",
      "type": "function"
    },
    {
      "inputs": [
        {
          "internalType": "address",
          "name": "operator",
          "type": "address"
        },
        {
          "internalType": "bool",
          "name": "approved",
          "type": "bool"
        }
      ],
      "name": "setApprovalForAll",
      "outputs": [],
      "stateMutability": "nonpayable",
      "type": "function"
    },
    {
      "inputs": [
        {
          "internalType": "string",
          "name": "_level1",
          "type": "string"
        },
        {
          "internalType": "string",
          "name": "_level2",
          "type": "string"
        },
        {
          "internalType": "string",
          "name": "_level3",
          "type": "string"
        }
      ],
      "name": "setBaseURIs",
      "outputs": [],
      "stateMutability": "nonpayable",
      "type": "function"
    },
    {
      "inputs": [
        {
          "internalType": "bytes4",
          "name": "interfaceId",
          "type": "bytes4"
        }
      ],
      "name": "supportsInterface",
      "outputs": [
        {
          "internalType": "bool",
          "name": "",
          "type": "bool"
        }
      ],
      "stateMutability": "view",
      "type": "function"
    },
    {
      "inputs": [],
      "name": "symbol",
      "outputs": [
        {
          "internalType": "string",
          "name": "",
          "type": "string"
        }
      ],
      "stateMutability": "view",
      "type": "function"
    },
    {
      "inputs": [
        {
          "internalType": "uint256",
          "name": "index",
          "type": "uint256"
        }
      ],
      "name": "tokenByIndex",
      "outputs": [
        {
          "internalType": "uint256",
          "name": "",
          "type": "uint256"
        }
      ],
      "stateMutability": "view",
      "type": "function"
    },
    {
      "inputs": [
        {
          "internalType": "uint256",
          "name": "",
          "type": "uint256"
        }
      ],
      "name": "tokenForm",
      "outputs": [
        {
          "internalType": "string",
          "name": "",
          "type": "string"
        }
      ],
      "stateMutability": "view",
      "type": "function"
    },
    {
      "inputs": [
        {
          "internalType": "uint256",
          "name": "",
          "type": "uint256"
        }
      ],
      "name": "tokenLevel",
      "outputs": [
        {
          "internalType": "uint8",
          "name": "",
          "type": "uint8"
        }
      ],
      "stateMutability": "view",
      "type": "function"
    },
    {
      "inputs": [
        {
          "internalType": "address",
          "name": "owner",
          "type": "address"
        },
        {
          "internalType": "uint256",
          "name": "index",
          "type": "uint256"
        }
      ],
      "name": "tokenOfOwnerByIndex",
      "outputs": [
        {
          "internalType": "uint256",
          "name": "",
          "type": "uint256"
        }
      ],
      "stateMutability": "view",
      "type": "function"
    },
    {
      "inputs": [
        {
          "internalType": "uint256",
          "name": "tokenId",
          "type": "uint256"
        }
      ],
      "name": "tokenURI",
      "outputs": [
        {
          "internalType": "string",
          "name": "",
          "type": "string"
        }
      ],
      "stateMutability": "view",
      "type": "function"
    },
    {
      "inputs": [],
      "name": "totalSupply",
      "outputs": [
        {
          "internalType": "uint256",
          "name": "",
          "type": "uint256"
        }
      ],
      "stateMutability": "view",
      "type": "function"
    },
    {
      "inputs": [
        {
          "internalType": "address",
          "name": "from",
          "type": "address"
        },
        {
          "internalType": "address",
          "name": "to",
          "type": "address"
        },
        {
          "internalType": "uint256",
          "name": "tokenId",
          "type": "uint256"
        }
      ],
      "name": "transferFrom",
      "outputs": [],
      "stateMutability": "nonpayable",
      "type": "function"
    },
    {
      "inputs": [
        {
          "internalType": "address",
          "name": "newOwner",
          "type": "address"
        }
      ],
      "name": "transferOwnership",
      "outputs": [],
      "stateMutability": "nonpayable",
      "type": "function"
    }
  ],
  "bytecode": "0x608060405260016010556040518060c001604052806040518060400160405280601181526020017f41315f4c335f546f74656d5f466c61726500000000000000000000000000000081525081526020016040518060400160405280601181526020017f41325f4c335f48616c6f5f456e7469747900000000000000000000000000000081525081526020016040518060400160405280601481526020017f42315f4c335f536861646f775f5761746368657200000000000000000000000081525081526020016040518060400160405280601181526020017f42325f4c335f57696e6765645f436f726500000000000000000000000000000081525081526020016040518060400160405280601181526020017f43315f4c335f426f6e655f4d656d6f727900000000000000000000000000000081525081526020016040518060400160405280601381526020017f43325f4c335f5370697269745f47726f77746800000000000000000000000000815250815250601190600662000186929190620003a1565b503480156200019457600080fd5b5060405162005e6338038062005e638339818101604052810190620001ba9190620004eb565b806040518060400160405280600c81526020017f466f72676f7474656e4e465400000000000000000000000000000000000000008152506040518060400160405280600381526020017f4647540000000000000000000000000000000000000000000000000000000000815250816000908162000238919062000797565b5080600190816200024a919062000797565b505050600073ffffffffffffffffffffffffffffffffffffffff168173ffffffffffffffffffffffffffffffffffffffff1603620002c25760006040517f1e4fbdf7000000000000000000000000000000000000000000000000000000008152600401620002b991906200088f565b60405180910390fd5b620002d381620002db60201b60201c565b5050620008ac565b6000600a60009054906101000a900473ffffffffffffffffffffffffffffffffffffffff16905081600a60006101000a81548173ffffffffffffffffffffffffffffffffffffffff021916908373ffffffffffffffffffffffffffffffffffffffff1602179055508173ffffffffffffffffffffffffffffffffffffffff168173ffffffffffffffffffffffffffffffffffffffff167f8be0079c531659141344cd1fd0a4f28419497f9722a3daafe3b4186f6b6457e060405160405180910390a35050565b8260068101928215620003e1579160200282015b82811115620003e0578251829081620003cf919062000797565b5091602001919060010190620003b5565b5b509050620003f09190620003f4565b5090565b5b808211156200041857600081816200040e91906200041c565b50600101620003f5565b5090565b5080546200042a9062000586565b6000825580601f106200043e57506200045f565b601f0160209004906000526020600020908101906200045e919062000462565b5b50565b5b808211156200047d57600081600090555060010162000463565b5090565b600080fd5b600073ffffffffffffffffffffffffffffffffffffffff82169050919050565b6000620004b38262000486565b9050919050565b620004c581620004a6565b8114620004d157600080fd5b50565b600081519050620004e581620004ba565b92915050565b60006020828403121562000504576200050362000481565b5b60006200051484828501620004d4565b91505092915050565b600081519050919050565b7f4e487b7100000000000000000000000000000000000000000000000000000000600052604160045260246000fd5b7f4e487b7100000000000000000000000000000000000000000000000000000000600052602260045260246000fd5b600060028204905060018216806200059f57607f821691505b602082108103620005b557620005b462000557565b5b50919050565b60008190508160005260206000209050919050565b60006020601f8301049050919050565b600082821b905092915050565b6000600883026200061f7fffffffffffffffffffffffffffffffffffffffffffffffffffffffffffffffff82620005e0565b6200062b8683620005e0565b95508019841693508086168417925050509392505050565b6000819050919050565b6000819050919050565b600062000678620006726200066c8462000643565b6200064d565b62000643565b9050919050565b6000819050919050565b620006948362000657565b620006ac620006a3826200067f565b848454620005ed565b825550505050565b600090565b620006c3620006b4565b620006d081848462000689565b505050565b5b81811015620006f857620006ec600082620006b9565b600181019050620006d6565b5050565b601f82111562000747576200071181620005bb565b6200071c84620005d0565b810160208510156200072c578190505b620007446200073b85620005d0565b830182620006d5565b50505b505050565b600082821c905092915050565b60006200076c600019846008026200074c565b1980831691505092915050565b600062000787838362000759565b9150826002028217905092915050565b620007a2826200051d565b67ffffffffffffffff811115620007be57620007bd62000528565b5b620007ca825462000586565b620007d7828285620006fc565b600060209050601f8311600181146200080f5760008415620007fa578287015190505b62000806858262000779565b86555062000876565b601f1984166200081f86620005bb565b60005b82811015620008495784890151825560018201915060208501945060208101905062000822565b8683101562000869578489015162000865601f89168262000759565b8355505b6001600288020188555050505b505050505050565b6200088981620004a6565b82525050565b6000602082019050620008a660008301846200087e565b92915050565b6155a780620008bc6000396000f3fe6080604052600436106102045760003560e01c80636352211e11610118578063a3f7210a116100a0578063c002d23d1161006f578063c002d23d14610792578063c7851c47146107bd578063c87b56dd146107e8578063e985e9c514610825578063f2fde38b1461086257610204565b8063a3f7210a146106c6578063a7d1ab8c146106ef578063ab8ece8b1461072c578063b88d4fde1461076957610204565b806375794a3c116100e757806375794a3c146105df5780638da5cb5b1461060a578063927a11b61461063557806395d89b4114610672578063a22cb4651461069d57610204565b80636352211e146105255780636bc5f9bb1461056257806370a082311461058b578063715018a6146105c857610204565b806328ada40b1161019b57806332cb6b0c1161016a57806332cb6b0c1461042a57806342842e0e1461045557806346f61ebc1461047e5780634f6ccce7146104a95780635de6dc55146104e657610204565b806328ada40b1461037f57806328d613cb146103a85780632db11544146103d15780632f745c59146103ed57610204565b80630c2e26e5116101d75780630c2e26e5146102d757806318160ddd1461030257806323b872dd1461032d578063248b71fc1461035657610204565b806301ffc9a71461020957806306fdde0314610246578063081812fc14610271578063095ea7b3146102ae575b600080fd5b34801561021557600080fd5b50610230600480360381019061022b9190613931565b61088b565b60405161023d9190613979565b60405180910390f35b34801561025257600080fd5b5061025b61089d565b6040516102689190613a24565b60405180910390f35b34801561027d57600080fd5b5061029860048036038101906102939190613a7c565b61092f565b6040516102a59190613aea565b60405180910390f35b3480156102ba57600080fd5b506102d560048036038101906102d09190613b31565b61094b565b005b3480156102e357600080fd5b506102ec610961565b6040516102f99190613a24565b60405180910390f35b34801561030e57600080fd5b506103176109ef565b6040516103249190613b80565b60405180910390f35b34801561033957600080fd5b50610354600480360381019061034f9190613b9b565b6109fc565b005b34801561036257600080fd5b5061037d60048036038101906103789190613b31565b610afe565b005b34801561038b57600080fd5b506103a660048036038101906103a19190613ca9565b610c2a565b005b3480156103b457600080fd5b506103cf60048036038101906103ca9190613d2a565b6110a7565b005b6103eb60048036038101906103e69190613a7c565b611330565b005b3480156103f957600080fd5b50610414600480360381019061040f9190613b31565b6114a7565b6040516104219190613b80565b60405180910390f35b34801561043657600080fd5b5061043f611550565b60405161044c9190613b80565b60405180910390f35b34801561046157600080fd5b5061047c60048036038101906104779190613b9b565b611556565b005b34801561048a57600080fd5b50610493611576565b6040516104a09190613a24565b60405180910390f35b3480156104b557600080fd5b506104d060048036038101906104cb9190613a7c565b611604565b6040516104dd9190613b80565b60405180910390f35b3480156104f257600080fd5b5061050d60048036038101906105089190613d8a565b61167a565b60405161051c9392919061404c565b60405180910390f35b34801561053157600080fd5b5061054c60048036038101906105479190613a7c565b6118ca565b6040516105599190613aea565b60405180910390f35b34801561056e57600080fd5b50610589600480360381019061058491906141c8565b6118dc565b005b34801561059757600080fd5b506105b260048036038101906105ad9190613d8a565b611919565b6040516105bf9190613b80565b60405180910390f35b3480156105d457600080fd5b506105dd6119d3565b005b3480156105eb57600080fd5b506105f46119e7565b6040516106019190613b80565b60405180910390f35b34801561061657600080fd5b5061061f6119ed565b60405161062c9190613aea565b60405180910390f35b34801561064157600080fd5b5061065c60048036038101906106579190613a7c565b611a17565b6040516106699190613a24565b60405180910390f35b34801561067e57600080fd5b50610687611b49565b6040516106949190613a24565b60405180910390f35b3480156106a957600080fd5b506106c460048036038101906106bf919061429b565b611bdb565b005b3480156106d257600080fd5b506106ed60048036038101906106e89190614331565b611bf1565b005b3480156106fb57600080fd5b5061071660048036038101906107119190613a7c565b611fc3565b6040516107239190613a24565b60405180910390f35b34801561073857600080fd5b50610753600480360381019061074e9190613a7c565b612063565b60405161076091906143c1565b60405180910390f35b34801561077557600080fd5b50610790600480360381019061078b919061447d565b612083565b005b34801561079e57600080fd5b506107a76120a8565b6040516107b49190613b80565b60405180910390f35b3480156107c957600080fd5b506107d26120b3565b6040516107df9190613a24565b60405180910390f35b3480156107f457600080fd5b5061080f600480360381019061080a9190613a7c565b612141565b60405161081c9190613a24565b60405180910390f35b34801561083157600080fd5b5061084c60048036038101906108479190614500565b61248c565b6040516108599190613979565b60405180910390f35b34801561086e57600080fd5b5061088960048036038101906108849190613d8a565b612520565b005b6000610896826125a6565b9050919050565b6060600080546108ac9061456f565b80601f01602080910402602001604051908101604052809291908181526020018280546108d89061456f565b80156109255780601f106108fa57610100808354040283529160200191610925565b820191906000526020600020905b81548152906001019060200180831161090857829003601f168201915b5050505050905090565b600061093a82612620565b50610944826126a8565b9050919050565b61095d82826109586126e5565b6126ed565b5050565b600d805461096e9061456f565b80601f016020809104026020016040519081016040528092919081815260200182805461099a9061456f565b80156109e75780601f106109bc576101008083540402835291602001916109e7565b820191906000526020600020905b8154815290600101906020018083116109ca57829003601f168201915b505050505081565b6000600880549050905090565b600073ffffffffffffffffffffffffffffffffffffffff168273ffffffffffffffffffffffffffffffffffffffff1603610a6e5760006040517f64a0ae92000000000000000000000000000000000000000000000000000000008152600401610a659190613aea565b60405180910390fd5b6000610a828383610a7d6126e5565b6126ff565b90508373ffffffffffffffffffffffffffffffffffffffff168173ffffffffffffffffffffffffffffffffffffffff1614610af8578382826040517f64283d7b000000000000000000000000000000000000000000000000000000008152600401610aef939291906145a0565b60405180910390fd5b50505050565b610b06612715565b600081118015610b17575060648111155b610b56576040517f08c379a0000000000000000000000000000000000000000000000000000000008152600401610b4d90614623565b60405180910390fd5b617530600182601054610b699190614672565b610b7391906146a6565b1115610bb4576040517f08c379a0000000000000000000000000000000000000000000000000000000008152600401610bab90614726565b60405180910390fd5b60005b81811015610c2557610bcb8360105461279c565b6001600e6000601054815260200190815260200160002060006101000a81548160ff021916908360ff16021790555060106000815480929190610c0d90614746565b91905055508080610c1d90614746565b915050610bb7565b505050565b60058484905014610c70576040517f08c379a0000000000000000000000000000000000000000000000000000000008152600401610c67906147da565b60405180910390fd5b6175306010541115610cb7576040517f08c379a0000000000000000000000000000000000000000000000000000000008152600401610cae90614726565b60405180910390fd5b610d0482828080601f016020809104026020016040519081016040528093929190818152602001838380828437600081840152601f19601f820116905080830192505050505050506127ba565b610d43576040517f08c379a0000000000000000000000000000000000000000000000000000000008152600401610d3a90614846565b60405180910390fd5b6000610d6885856000818110610d5c57610d5b614866565b5b90506020020135611a17565b905060005b600581101561102757600073ffffffffffffffffffffffffffffffffffffffff16610db0878784818110610da457610da3614866565b5b9050602002013561282a565b73ffffffffffffffffffffffffffffffffffffffff1603610e06576040517f08c379a0000000000000000000000000000000000000000000000000000000008152600401610dfd906148e1565b60405180910390fd5b3373ffffffffffffffffffffffffffffffffffffffff16610e3f878784818110610e3357610e32614866565b5b905060200201356118ca565b73ffffffffffffffffffffffffffffffffffffffff1614610e95576040517f08c379a0000000000000000000000000000000000000000000000000000000008152600401610e8c9061494d565b60405180910390fd5b6002600e6000888885818110610eae57610ead614866565b5b90506020020135815260200190815260200160002060009054906101000a900460ff1660ff1614610f14576040517f08c379a0000000000000000000000000000000000000000000000000000000008152600401610f0b906149b9565b60405180910390fd5b610f3f610f39878784818110610f2d57610f2c614866565b5b90506020020135611a17565b83612867565b610f7e576040517f08c379a0000000000000000000000000000000000000000000000000000000008152600401610f7590614a25565b60405180910390fd5b610fa0868683818110610f9457610f93614866565b5b90506020020135612882565b600e6000878784818110610fb757610fb6614866565b5b90506020020135815260200190815260200160002060006101000a81549060ff0219169055600f6000878784818110610ff357610ff2614866565b5b90506020020135815260200190815260200160002060006110149190613868565b808061101f90614746565b915050610d6d565b506110343360105461279c565b6003600e6000601054815260200190815260200160002060006101000a81548160ff021916908360ff1602179055508282600f600060105481526020019081526020016000209182611087929190614bfc565b506010600081548092919061109b90614746565b91905055505050505050565b600073ffffffffffffffffffffffffffffffffffffffff166110c88461282a565b73ffffffffffffffffffffffffffffffffffffffff160361111e576040517f08c379a0000000000000000000000000000000000000000000000000000000008152600401611115906148e1565b60405180910390fd5b3373ffffffffffffffffffffffffffffffffffffffff1661113e846118ca565b73ffffffffffffffffffffffffffffffffffffffff1614611194576040517f08c379a000000000000000000000000000000000000000000000000000000000815260040161118b90614d18565b60405180910390fd5b6001600e600085815260200190815260200160002060009054906101000a900460ff1660ff16146111fa576040517f08c379a00000000000000000000000000000000000000000000000000000000081526004016111f190614d84565b60405180910390fd5b6175306010541115611241576040517f08c379a000000000000000000000000000000000000000000000000000000000815260040161123890614726565b60405180910390fd5b60008282905011611287576040517f08c379a000000000000000000000000000000000000000000000000000000000815260040161127e90614df0565b60405180910390fd5b61129083612882565b600e600084815260200190815260200160002060006101000a81549060ff02191690556112bf3360105461279c565b6002600e6000601054815260200190815260200160002060006101000a81548160ff021916908360ff1602179055508181600f600060105481526020019081526020016000209182611312929190614bfc565b506010600081548092919061132690614746565b9190505550505050565b6000811180156113415750600a8111155b611380576040517f08c379a000000000000000000000000000000000000000000000000000000000815260040161137790614e5c565b60405180910390fd5b6175306001826010546113939190614672565b61139d91906146a6565b11156113de576040517f08c379a00000000000000000000000000000000000000000000000000000000081526004016113d590614726565b60405180910390fd5b80662386f26fc100006113f19190614e7c565b3414611432576040517f08c379a000000000000000000000000000000000000000000000000000000000815260040161142990614f0a565b60405180910390fd5b60005b818110156114a3576114493360105461279c565b6001600e6000601054815260200190815260200160002060006101000a81548160ff021916908360ff1602179055506010600081548092919061148b90614746565b9190505550808061149b90614746565b915050611435565b5050565b60006114b283611919565b82106114f75782826040517fa57d13dc0000000000000000000000000000000000000000000000000000000081526004016114ee929190614f2a565b60405180910390fd5b600660008473ffffffffffffffffffffffffffffffffffffffff1673ffffffffffffffffffffffffffffffffffffffff168152602001908152602001600020600083815260200190815260200160002054905092915050565b61753081565b61157183838360405180602001604052806000815250612083565b505050565b600b80546115839061456f565b80601f01602080910402602001604051908101604052809291908181526020018280546115af9061456f565b80156115fc5780601f106115d1576101008083540402835291602001916115fc565b820191906000526020600020905b8154815290600101906020018083116115df57829003601f168201915b505050505081565b600061160e6109ef565b8210611654576000826040517fa57d13dc00000000000000000000000000000000000000000000000000000000815260040161164b929190614f2a565b60405180910390fd5b6008828154811061166857611667614866565b5b90600052602060002001549050919050565b6060806060600061168a85611919565b90508067ffffffffffffffff8111156116a6576116a561409d565b5b6040519080825280602002602001820160405280156116d45781602001602082028036833780820191505090505b5093508067ffffffffffffffff8111156116f1576116f061409d565b5b60405190808252806020026020018201604052801561171f5781602001602082028036833780820191505090505b5092508067ffffffffffffffff81111561173c5761173b61409d565b5b60405190808252806020026020018201604052801561176f57816020015b606081526020019060019003908161175a5790505b50915060005b818110156118c157600061178987836114a7565b90508086838151811061179f5761179e614866565b5b602002602001018181525050600e600082815260200190815260200160002060009054906101000a900460ff168583815181106117df576117de614866565b5b602002602001019060ff16908160ff1681525050600f600082815260200190815260200160002080546118119061456f565b80601f016020809104026020016040519081016040528092919081815260200182805461183d9061456f565b801561188a5780601f1061185f5761010080835404028352916020019161188a565b820191906000526020600020905b81548152906001019060200180831161186d57829003601f168201915b50505050508483815181106118a2576118a1614866565b5b60200260200101819052505080806118b990614746565b915050611775565b50509193909250565b60006118d582612620565b9050919050565b6118e4612715565b82600b90816118f39190614f53565b5081600c90816119039190614f53565b5080600d90816119139190614f53565b50505050565b60008073ffffffffffffffffffffffffffffffffffffffff168273ffffffffffffffffffffffffffffffffffffffff160361198c5760006040517f89c62b640000000000000000000000000000000000000000000000000000000081526004016119839190613aea565b60405180910390fd5b600360008373ffffffffffffffffffffffffffffffffffffffff1673ffffffffffffffffffffffffffffffffffffffff168152602001908152602001600020549050919050565b6119db612715565b6119e56000612908565b565b60105481565b6000600a60009054906101000a900473ffffffffffffffffffffffffffffffffffffffff16905090565b60606000600f60008481526020019081526020016000208054611a399061456f565b80601f0160208091040260200160405190810160405280929190818152602001828054611a659061456f565b8015611ab25780601f10611a8757610100808354040283529160200191611ab2565b820191906000526020600020905b815481529060010190602001808311611a9557829003601f168201915b505050505090506000819050600281511015611ae1576040518060200160405280600081525092505050611b44565b80600081518110611af557611af4614866565b5b602001015160f81c60f81b81600181518110611b1457611b13614866565b5b602001015160f81c60f81b604051602001611b30929190615072565b604051602081830303815290604052925050505b919050565b606060018054611b589061456f565b80601f0160208091040260200160405190810160405280929190818152602001828054611b849061456f565b8015611bd15780601f10611ba657610100808354040283529160200191611bd1565b820191906000526020600020905b815481529060010190602001808311611bb457829003601f168201915b5050505050905090565b611bed611be66126e5565b83836129ce565b5050565b818190508484905014611c39576040517f08c379a0000000000000000000000000000000000000000000000000000000008152600401611c30906150ea565b60405180910390fd5b600084849050118015611c50575060148484905011155b611c8f576040517f08c379a0000000000000000000000000000000000000000000000000000000008152600401611c8690615156565b60405180910390fd5b60005b84849050811015611fbc576000858583818110611cb257611cb1614866565b5b9050602002013590506000848484818110611cd057611ccf614866565b5b9050602002810190611ce29190615185565b8080601f016020809104026020016040519081016040528093929190818152602001838380828437600081840152601f19601f820116905080830192505050505050509050600073ffffffffffffffffffffffffffffffffffffffff16611d488361282a565b73ffffffffffffffffffffffffffffffffffffffff1603611d9e576040517f08c379a0000000000000000000000000000000000000000000000000000000008152600401611d95906148e1565b60405180910390fd5b3373ffffffffffffffffffffffffffffffffffffffff16611dbe836118ca565b73ffffffffffffffffffffffffffffffffffffffff1614611e14576040517f08c379a0000000000000000000000000000000000000000000000000000000008152600401611e0b90614d18565b60405180910390fd5b6001600e600084815260200190815260200160002060009054906101000a900460ff1660ff1614611e7a576040517f08c379a0000000000000000000000000000000000000000000000000000000008152600401611e7190614d84565b60405180910390fd5b6175306010541115611ec1576040517f08c379a0000000000000000000000000000000000000000000000000000000008152600401611eb890614726565b60405180910390fd5b6000815111611f05576040517f08c379a0000000000000000000000000000000000000000000000000000000008152600401611efc90614df0565b60405180910390fd5b611f0e82612882565b600e600083815260200190815260200160002060006101000a81549060ff0219169055611f3d3360105461279c565b6002600e6000601054815260200190815260200160002060006101000a81548160ff021916908360ff16021790555080600f600060105481526020019081526020016000209081611f8e9190614f53565b5060106000815480929190611fa290614746565b919050555050508080611fb490614746565b915050611c92565b5050505050565b600f6020528060005260406000206000915090508054611fe29061456f565b80601f016020809104026020016040519081016040528092919081815260200182805461200e9061456f565b801561205b5780601f106120305761010080835404028352916020019161205b565b820191906000526020600020905b81548152906001019060200180831161203e57829003601f168201915b505050505081565b600e6020528060005260406000206000915054906101000a900460ff1681565b61208e8484846109fc565b6120a26120996126e5565b85858585612b3d565b50505050565b662386f26fc1000081565b600c80546120c09061456f565b80601f01602080910402602001604051908101604052809291908181526020018280546120ec9061456f565b80156121395780601f1061210e57610100808354040283529160200191612139565b820191906000526020600020905b81548152906001019060200180831161211c57829003601f168201915b505050505081565b6060600073ffffffffffffffffffffffffffffffffffffffff166121648361282a565b73ffffffffffffffffffffffffffffffffffffffff16036121ba576040517f08c379a00000000000000000000000000000000000000000000000000000000081526004016121b1906148e1565b60405180910390fd5b60606000600e600085815260200190815260200160002060009054906101000a900460ff16905060018160ff16036122a257600b80546121f99061456f565b80601f01602080910402602001604051908101604052809291908181526020018280546122259061456f565b80156122725780601f1061224757610100808354040283529160200191612272565b820191906000526020600020905b81548152906001019060200180831161225557829003601f168201915b505050505091508160405160200161228a9190615224565b60405160208183030381529060405292505050612487565b60028160ff160361237757600c80546122ba9061456f565b80601f01602080910402602001604051908101604052809291908181526020018280546122e69061456f565b80156123335780601f1061230857610100808354040283529160200191612333565b820191906000526020600020905b81548152906001019060200180831161231657829003601f168201915b5050505050915081600f600086815260200190815260200160002060405160200161235f92919061530a565b60405160208183030381529060405292505050612487565b60038160ff160361244c57600d805461238f9061456f565b80601f01602080910402602001604051908101604052809291908181526020018280546123bb9061456f565b80156124085780601f106123dd57610100808354040283529160200191612408565b820191906000526020600020905b8154815290600101906020018083116123eb57829003601f168201915b5050505050915081600f600086815260200190815260200160002060405160200161243492919061530a565b60405160208183030381529060405292505050612487565b6040517f08c379a000000000000000000000000000000000000000000000000000000000815260040161247e90615385565b60405180910390fd5b919050565b6000600560008473ffffffffffffffffffffffffffffffffffffffff1673ffffffffffffffffffffffffffffffffffffffff16815260200190815260200160002060008373ffffffffffffffffffffffffffffffffffffffff1673ffffffffffffffffffffffffffffffffffffffff16815260200190815260200160002060009054906101000a900460ff16905092915050565b612528612715565b600073ffffffffffffffffffffffffffffffffffffffff168173ffffffffffffffffffffffffffffffffffffffff160361259a5760006040517f1e4fbdf70000000000000000000000000000000000000000000000000000000081526004016125919190613aea565b60405180910390fd5b6125a381612908565b50565b60007f780e9d63000000000000000000000000000000000000000000000000000000007bffffffffffffffffffffffffffffffffffffffffffffffffffffffff1916827bffffffffffffffffffffffffffffffffffffffffffffffffffffffff19161480612619575061261882612cee565b5b9050919050565b60008061262c8361282a565b9050600073ffffffffffffffffffffffffffffffffffffffff168173ffffffffffffffffffffffffffffffffffffffff160361269f57826040517f7e2732890000000000000000000000000000000000000000000000000000000081526004016126969190613b80565b60405180910390fd5b80915050919050565b60006004600083815260200190815260200160002060009054906101000a900473ffffffffffffffffffffffffffffffffffffffff169050919050565b600033905090565b6126fa8383836001612dd0565b505050565b600061270c848484612f95565b90509392505050565b61271d6126e5565b73ffffffffffffffffffffffffffffffffffffffff1661273b6119ed565b73ffffffffffffffffffffffffffffffffffffffff161461279a5761275e6126e5565b6040517f118cdaa70000000000000000000000000000000000000000000000000000000081526004016127919190613aea565b60405180910390fd5b565b6127b68282604051806020016040528060008152506130b2565b5050565b600080600090505b600681101561281f57601181600681106127df576127de614866565b5b016040516127ed9190615448565b604051809103902083805190602001200361280c576001915050612825565b808061281790614746565b9150506127c2565b50600090505b919050565b60006002600083815260200190815260200160002060009054906101000a900473ffffffffffffffffffffffffffffffffffffffff169050919050565b60008180519060200120838051906020012014905092915050565b600061289160008360006126ff565b9050600073ffffffffffffffffffffffffffffffffffffffff168173ffffffffffffffffffffffffffffffffffffffff160361290457816040517f7e2732890000000000000000000000000000000000000000000000000000000081526004016128fb9190613b80565b60405180910390fd5b5050565b6000600a60009054906101000a900473ffffffffffffffffffffffffffffffffffffffff16905081600a60006101000a81548173ffffffffffffffffffffffffffffffffffffffff021916908373ffffffffffffffffffffffffffffffffffffffff1602179055508173ffffffffffffffffffffffffffffffffffffffff168173ffffffffffffffffffffffffffffffffffffffff167f8be0079c531659141344cd1fd0a4f28419497f9722a3daafe3b4186f6b6457e060405160405180910390a35050565b600073ffffffffffffffffffffffffffffffffffffffff168273ffffffffffffffffffffffffffffffffffffffff1603612a3f57816040517f5b08ba18000000000000000000000000000000000000000000000000000000008152600401612a369190613aea565b60405180910390fd5b80600560008573ffffffffffffffffffffffffffffffffffffffff1673ffffffffffffffffffffffffffffffffffffffff16815260200190815260200160002060008473ffffffffffffffffffffffffffffffffffffffff1673ffffffffffffffffffffffffffffffffffffffff16815260200190815260200160002060006101000a81548160ff0219169083151502179055508173ffffffffffffffffffffffffffffffffffffffff168373ffffffffffffffffffffffffffffffffffffffff167f17307eab39ab6107e8899845ad3d59bd9653f200f220920489ca2b5937696c3183604051612b309190613979565b60405180910390a3505050565b60008373ffffffffffffffffffffffffffffffffffffffff163b1115612ce7578273ffffffffffffffffffffffffffffffffffffffff1663150b7a02868685856040518563ffffffff1660e01b8152600401612b9c94939291906154b4565b6020604051808303816000875af1925050508015612bd857506040513d601f19601f82011682018060405250810190612bd59190615515565b60015b612c5c573d8060008114612c08576040519150601f19603f3d011682016040523d82523d6000602084013e612c0d565b606091505b506000815103612c5457836040517f64a0ae92000000000000000000000000000000000000000000000000000000008152600401612c4b9190613aea565b60405180910390fd5b805160208201fd5b63150b7a0260e01b7bffffffffffffffffffffffffffffffffffffffffffffffffffffffff1916817bffffffffffffffffffffffffffffffffffffffffffffffffffffffff191614612ce557836040517f64a0ae92000000000000000000000000000000000000000000000000000000008152600401612cdc9190613aea565b60405180910390fd5b505b5050505050565b60007f80ac58cd000000000000000000000000000000000000000000000000000000007bffffffffffffffffffffffffffffffffffffffffffffffffffffffff1916827bffffffffffffffffffffffffffffffffffffffffffffffffffffffff19161480612db957507f5b5e139f000000000000000000000000000000000000000000000000000000007bffffffffffffffffffffffffffffffffffffffffffffffffffffffff1916827bffffffffffffffffffffffffffffffffffffffffffffffffffffffff1916145b80612dc95750612dc8826130d6565b5b9050919050565b8080612e095750600073ffffffffffffffffffffffffffffffffffffffff168273ffffffffffffffffffffffffffffffffffffffff1614155b15612f3d576000612e1984612620565b9050600073ffffffffffffffffffffffffffffffffffffffff168373ffffffffffffffffffffffffffffffffffffffff1614158015612e8457508273ffffffffffffffffffffffffffffffffffffffff168173ffffffffffffffffffffffffffffffffffffffff1614155b8015612e975750612e95818461248c565b155b15612ed957826040517fa9fbf51f000000000000000000000000000000000000000000000000000000008152600401612ed09190613aea565b60405180910390fd5b8115612f3b57838573ffffffffffffffffffffffffffffffffffffffff168273ffffffffffffffffffffffffffffffffffffffff167f8c5be1e5ebec7d5bd14f71427d1e84f3dd0314c0f7b2291e5b200ac8c7c3b92560405160405180910390a45b505b836004600085815260200190815260200160002060006101000a81548173ffffffffffffffffffffffffffffffffffffffff021916908373ffffffffffffffffffffffffffffffffffffffff16021790555050505050565b600080612fa3858585613140565b9050600073ffffffffffffffffffffffffffffffffffffffff168173ffffffffffffffffffffffffffffffffffffffff1603612fe757612fe28461335a565b613026565b8473ffffffffffffffffffffffffffffffffffffffff168173ffffffffffffffffffffffffffffffffffffffff16146130255761302481856133a3565b5b5b600073ffffffffffffffffffffffffffffffffffffffff168573ffffffffffffffffffffffffffffffffffffffff1603613068576130638461348e565b6130a7565b8473ffffffffffffffffffffffffffffffffffffffff168173ffffffffffffffffffffffffffffffffffffffff16146130a6576130a5858561355f565b5b5b809150509392505050565b6130bc83836135ea565b6130d16130c76126e5565b6000858585612b3d565b505050565b60007f01ffc9a7000000000000000000000000000000000000000000000000000000007bffffffffffffffffffffffffffffffffffffffffffffffffffffffff1916827bffffffffffffffffffffffffffffffffffffffffffffffffffffffff1916149050919050565b60008061314c8461282a565b9050600073ffffffffffffffffffffffffffffffffffffffff168373ffffffffffffffffffffffffffffffffffffffff161461318e5761318d8184866136e3565b5b600073ffffffffffffffffffffffffffffffffffffffff168173ffffffffffffffffffffffffffffffffffffffff161461321f576131d0600085600080612dd0565b6001600360008373ffffffffffffffffffffffffffffffffffffffff1673ffffffffffffffffffffffffffffffffffffffff168152602001908152602001600020600082825403925050819055505b600073ffffffffffffffffffffffffffffffffffffffff168573ffffffffffffffffffffffffffffffffffffffff16146132a2576001600360008773ffffffffffffffffffffffffffffffffffffffff1673ffffffffffffffffffffffffffffffffffffffff168152602001908152602001600020600082825401925050819055505b846002600086815260200190815260200160002060006101000a81548173ffffffffffffffffffffffffffffffffffffffff021916908373ffffffffffffffffffffffffffffffffffffffff160217905550838573ffffffffffffffffffffffffffffffffffffffff168273ffffffffffffffffffffffffffffffffffffffff167fddf252ad1be2c89b69c2b068fc378daa952ba7f163c4a11628f55a4df523b3ef60405160405180910390a4809150509392505050565b6008805490506009600083815260200190815260200160002081905550600881908060018154018082558091505060019003906000526020600020016000909190919091505550565b60006133ae83611919565b90506000600760008481526020019081526020016000205490506000600660008673ffffffffffffffffffffffffffffffffffffffff1673ffffffffffffffffffffffffffffffffffffffff168152602001908152602001600020905082821461345a5760008160008581526020019081526020016000205490508082600085815260200190815260200160002081905550826007600083815260200190815260200160002081905550505b6007600085815260200190815260200160002060009055806000848152602001908152602001600020600090555050505050565b600060016008805490506134a291906146a6565b90506000600960008481526020019081526020016000205490506000600883815481106134d2576134d1614866565b5b9060005260206000200154905080600883815481106134f4576134f3614866565b5b90600052602060002001819055508160096000838152602001908152602001600020819055506009600085815260200190815260200160002060009055600880548061354357613542615542565b5b6001900381819060005260206000200160009055905550505050565b6000600161356c84611919565b61357691906146a6565b905081600660008573ffffffffffffffffffffffffffffffffffffffff1673ffffffffffffffffffffffffffffffffffffffff168152602001908152602001600020600083815260200190815260200160002081905550806007600084815260200190815260200160002081905550505050565b600073ffffffffffffffffffffffffffffffffffffffff168273ffffffffffffffffffffffffffffffffffffffff160361365c5760006040517f64a0ae920000000000000000000000000000000000000000000000000000000081526004016136539190613aea565b60405180910390fd5b600061366a838360006126ff565b9050600073ffffffffffffffffffffffffffffffffffffffff168173ffffffffffffffffffffffffffffffffffffffff16146136de5760006040517f73c6ac6e0000000000000000000000000000000000000000000000000000000081526004016136d59190613aea565b60405180910390fd5b505050565b6136ee8383836137a7565b6137a257600073ffffffffffffffffffffffffffffffffffffffff168373ffffffffffffffffffffffffffffffffffffffff160361376357806040517f7e27328900000000000000000000000000000000000000000000000000000000815260040161375a9190613b80565b60405180910390fd5b81816040517f177e802f000000000000000000000000000000000000000000000000000000008152600401613799929190614f2a565b60405180910390fd5b505050565b60008073ffffffffffffffffffffffffffffffffffffffff168373ffffffffffffffffffffffffffffffffffffffff161415801561385f57508273ffffffffffffffffffffffffffffffffffffffff168473ffffffffffffffffffffffffffffffffffffffff161480613820575061381f848461248c565b5b8061385e57508273ffffffffffffffffffffffffffffffffffffffff16613846836126a8565b73ffffffffffffffffffffffffffffffffffffffff16145b5b90509392505050565b5080546138749061456f565b6000825580601f1061388657506138a5565b601f0160209004906000526020600020908101906138a491906138a8565b5b50565b5b808211156138c15760008160009055506001016138a9565b5090565b6000604051905090565b600080fd5b600080fd5b60007fffffffff0000000000000000000000000000000000000000000000000000000082169050919050565b61390e816138d9565b811461391957600080fd5b50565b60008135905061392b81613905565b92915050565b600060208284031215613947576139466138cf565b5b60006139558482850161391c565b91505092915050565b60008115159050919050565b6139738161395e565b82525050565b600060208201905061398e600083018461396a565b92915050565b600081519050919050565b600082825260208201905092915050565b60005b838110156139ce5780820151818401526020810190506139b3565b60008484015250505050565b6000601f19601f8301169050919050565b60006139f682613994565b613a00818561399f565b9350613a108185602086016139b0565b613a19816139da565b840191505092915050565b60006020820190508181036000830152613a3e81846139eb565b905092915050565b6000819050919050565b613a5981613a46565b8114613a6457600080fd5b50565b600081359050613a7681613a50565b92915050565b600060208284031215613a9257613a916138cf565b5b6000613aa084828501613a67565b91505092915050565b600073ffffffffffffffffffffffffffffffffffffffff82169050919050565b6000613ad482613aa9565b9050919050565b613ae481613ac9565b82525050565b6000602082019050613aff6000830184613adb565b92915050565b613b0e81613ac9565b8114613b1957600080fd5b50565b600081359050613b2b81613b05565b92915050565b60008060408385031215613b4857613b476138cf565b5b6000613b5685828601613b1c565b9250506020613b6785828601613a67565b9150509250929050565b613b7a81613a46565b82525050565b6000602082019050613b956000830184613b71565b92915050565b600080600060608486031215613bb457613bb36138cf565b5b6000613bc286828701613b1c565b9350506020613bd386828701613b1c565b9250506040613be486828701613a67565b9150509250925092565b600080fd5b600080fd5b600080fd5b60008083601f840112613c1357613c12613bee565b5b8235905067ffffffffffffffff811115613c3057613c2f613bf3565b5b602083019150836020820283011115613c4c57613c4b613bf8565b5b9250929050565b60008083601f840112613c6957613c68613bee565b5b8235905067ffffffffffffffff811115613c8657613c85613bf3565b5b602083019150836001820283011115613ca257613ca1613bf8565b5b9250929050565b60008060008060408587031215613cc357613cc26138cf565b5b600085013567ffffffffffffffff811115613ce157613ce06138d4565b5b613ced87828801613bfd565b9450945050602085013567ffffffffffffffff811115613d1057613d0f6138d4565b5b613d1c87828801613c53565b925092505092959194509250565b600080600060408486031215613d4357613d426138cf565b5b6000613d5186828701613a67565b935050602084013567ffffffffffffffff811115613d7257613d716138d4565b5b613d7e86828701613c53565b92509250509250925092565b600060208284031215613da057613d9f6138cf565b5b6000613dae84828501613b1c565b91505092915050565b600081519050919050565b600082825260208201905092915050565b6000819050602082019050919050565b613dec81613a46565b82525050565b6000613dfe8383613de3565b60208301905092915050565b6000602082019050919050565b6000613e2282613db7565b613e2c8185613dc2565b9350613e3783613dd3565b8060005b83811015613e68578151613e4f8882613df2565b9750613e5a83613e0a565b925050600181019050613e3b565b5085935050505092915050565b600081519050919050565b600082825260208201905092915050565b6000819050602082019050919050565b600060ff82169050919050565b613eb781613ea1565b82525050565b6000613ec98383613eae565b60208301905092915050565b6000602082019050919050565b6000613eed82613e75565b613ef78185613e80565b9350613f0283613e91565b8060005b83811015613f33578151613f1a8882613ebd565b9750613f2583613ed5565b925050600181019050613f06565b5085935050505092915050565b600081519050919050565b600082825260208201905092915050565b6000819050602082019050919050565b600082825260208201905092915050565b6000613f8882613994565b613f928185613f6c565b9350613fa28185602086016139b0565b613fab816139da565b840191505092915050565b6000613fc28383613f7d565b905092915050565b6000602082019050919050565b6000613fe282613f40565b613fec8185613f4b565b935083602082028501613ffe85613f5c565b8060005b8581101561403a578484038952815161401b8582613fb6565b945061402683613fca565b925060208a01995050600181019050614002565b50829750879550505050505092915050565b600060608201905081810360008301526140668186613e17565b9050818103602083015261407a8185613ee2565b9050818103604083015261408e8184613fd7565b9050949350505050565b600080fd5b7f4e487b7100000000000000000000000000000000000000000000000000000000600052604160045260246000fd5b6140d5826139da565b810181811067ffffffffffffffff821117156140f4576140f361409d565b5b80604052505050565b60006141076138c5565b905061411382826140cc565b919050565b600067ffffffffffffffff8211156141335761413261409d565b5b61413c826139da565b9050602081019050919050565b82818337600083830152505050565b600061416b61416684614118565b6140fd565b90508281526020810184848401111561418757614186614098565b5b614192848285614149565b509392505050565b600082601f8301126141af576141ae613bee565b5b81356141bf848260208601614158565b91505092915050565b6000806000606084860312156141e1576141e06138cf565b5b600084013567ffffffffffffffff8111156141ff576141fe6138d4565b5b61420b8682870161419a565b935050602084013567ffffffffffffffff81111561422c5761422b6138d4565b5b6142388682870161419a565b925050604084013567ffffffffffffffff811115614259576142586138d4565b5b6142658682870161419a565b9150509250925092565b6142788161395e565b811461428357600080fd5b50565b6000813590506142958161426f565b92915050565b600080604083850312156142b2576142b16138cf565b5b60006142c085828601613b1c565b92505060206142d185828601614286565b9150509250929050565b60008083601f8401126142f1576142f0613bee565b5b8235905067ffffffffffffffff81111561430e5761430d613bf3565b5b60208301915083602082028301111561432a57614329613bf8565b5b9250929050565b6000806000806040858703121561434b5761434a6138cf565b5b600085013567ffffffffffffffff811115614369576143686138d4565b5b61437587828801613bfd565b9450945050602085013567ffffffffffffffff811115614398576143976138d4565b5b6143a4878288016142db565b925092505092959194509250565b6143bb81613ea1565b82525050565b60006020820190506143d660008301846143b2565b92915050565b600067ffffffffffffffff8211156143f7576143f661409d565b5b614400826139da565b9050602081019050919050565b600061442061441b846143dc565b6140fd565b90508281526020810184848401111561443c5761443b614098565b5b614447848285614149565b509392505050565b600082601f83011261446457614463613bee565b5b813561447484826020860161440d565b91505092915050565b60008060008060808587031215614497576144966138cf565b5b60006144a587828801613b1c565b94505060206144b687828801613b1c565b93505060406144c787828801613a67565b925050606085013567ffffffffffffffff8111156144e8576144e76138d4565b5b6144f48782880161444f565b91505092959194509250565b60008060408385031215614517576145166138cf565b5b600061452585828601613b1c565b925050602061453685828601613b1c565b9150509250929050565b7f4e487b7100000000000000000000000000000000000000000000000000000000600052602260045260246000fd5b6000600282049050600182168061458757607f821691505b60208210810361459a57614599614540565b5b50919050565b60006060820190506145b56000830186613adb565b6145c26020830185613b71565b6145cf6040830184613adb565b949350505050565b7f416d6f756e74206d75737420626520312d313030000000000000000000000000600082015250565b600061460d60148361399f565b9150614618826145d7565b602082019050919050565b6000602082019050818103600083015261463c81614600565b9050919050565b7f4e487b7100000000000000000000000000000000000000000000000000000000600052601160045260246000fd5b600061467d82613a46565b915061468883613a46565b92508282019050808211156146a05761469f614643565b5b92915050565b60006146b182613a46565b91506146bc83613a46565b92508282039050818111156146d4576146d3614643565b5b92915050565b7f45786365656473206d617820737570706c790000000000000000000000000000600082015250565b600061471060128361399f565b915061471b826146da565b602082019050919050565b6000602082019050818103600083015261473f81614703565b9050919050565b600061475182613a46565b91507fffffffffffffffffffffffffffffffffffffffffffffffffffffffffffffffff820361478357614782614643565b5b600182019050919050565b7f4d7573742070726f76696465203520746f6b656e730000000000000000000000600082015250565b60006147c460158361399f565b91506147cf8261478e565b602082019050919050565b600060208201905081810360008301526147f3816147b7565b9050919050565b7f496e76616c6964206c6576656c203320666f726d000000000000000000000000600082015250565b600061483060148361399f565b915061483b826147fa565b602082019050919050565b6000602082019050818103600083015261485f81614823565b9050919050565b7f4e487b7100000000000000000000000000000000000000000000000000000000600052603260045260246000fd5b7f546f6b656e20646f6573206e6f74206578697374000000000000000000000000600082015250565b60006148cb60148361399f565b91506148d682614895565b602082019050919050565b600060208201905081810360008301526148fa816148be565b9050919050565b7f4e6f74206f776e6572206f6620616c6c20746f6b656e73000000000000000000600082015250565b600061493760178361399f565b915061494282614901565b602082019050919050565b600060208201905081810360008301526149668161492a565b9050919050565b7f416c6c20746f6b656e73206d757374206265206c6576656c2032000000000000600082015250565b60006149a3601a8361399f565b91506149ae8261496d565b602082019050919050565b600060208201905081810360008301526149d281614996565b9050919050565b7f416c6c20746f6b656e73206d7573742062652073616d65206272616e63680000600082015250565b6000614a0f601e8361399f565b9150614a1a826149d9565b602082019050919050565b60006020820190508181036000830152614a3e81614a02565b9050919050565b600082905092915050565b60008190508160005260206000209050919050565b60006020601f8301049050919050565b600082821b905092915050565b600060088302614ab27fffffffffffffffffffffffffffffffffffffffffffffffffffffffffffffffff82614a75565b614abc8683614a75565b95508019841693508086168417925050509392505050565b6000819050919050565b6000614af9614af4614aef84613a46565b614ad4565b613a46565b9050919050565b6000819050919050565b614b1383614ade565b614b27614b1f82614b00565b848454614a82565b825550505050565b600090565b614b3c614b2f565b614b47818484614b0a565b505050565b5b81811015614b6b57614b60600082614b34565b600181019050614b4d565b5050565b601f821115614bb057614b8181614a50565b614b8a84614a65565b81016020851015614b99578190505b614bad614ba585614a65565b830182614b4c565b50505b505050565b600082821c905092915050565b6000614bd360001984600802614bb5565b1980831691505092915050565b6000614bec8383614bc2565b9150826002028217905092915050565b614c068383614a45565b67ffffffffffffffff811115614c1f57614c1e61409d565b5b614c29825461456f565b614c34828285614b6f565b6000601f831160018114614c635760008415614c51578287013590505b614c5b8582614be0565b865550614cc3565b601f198416614c7186614a50565b60005b82811015614c9957848901358255600182019150602085019450602081019050614c74565b86831015614cb65784890135614cb2601f891682614bc2565b8355505b6001600288020188555050505b50505050505050565b7f4e6f742074686520746f6b656e206f776e657200000000000000000000000000600082015250565b6000614d0260138361399f565b9150614d0d82614ccc565b602082019050919050565b60006020820190508181036000830152614d3181614cf5565b9050919050565b7f546f6b656e206d757374206265206c6576656c20310000000000000000000000600082015250565b6000614d6e60158361399f565b9150614d7982614d38565b602082019050919050565b60006020820190508181036000830152614d9d81614d61565b9050919050565b7f496e76616c696420666f726d0000000000000000000000000000000000000000600082015250565b6000614dda600c8361399f565b9150614de582614da4565b602082019050919050565b60006020820190508181036000830152614e0981614dcd565b9050919050565b7f416d6f756e74206d75737420626520312d313000000000000000000000000000600082015250565b6000614e4660138361399f565b9150614e5182614e10565b602082019050919050565b60006020820190508181036000830152614e7581614e39565b9050919050565b6000614e8782613a46565b9150614e9283613a46565b9250828202614ea081613a46565b91508282048414831517614eb757614eb6614643565b5b5092915050565b7f496e636f72726563742045544820616d6f756e74000000000000000000000000600082015250565b6000614ef460148361399f565b9150614eff82614ebe565b602082019050919050565b60006020820190508181036000830152614f2381614ee7565b9050919050565b6000604082019050614f3f6000830185613adb565b614f4c6020830184613b71565b9392505050565b614f5c82613994565b67ffffffffffffffff811115614f7557614f7461409d565b5b614f7f825461456f565b614f8a828285614b6f565b600060209050601f831160018114614fbd5760008415614fab578287015190505b614fb58582614be0565b86555061501d565b601f198416614fcb86614a50565b60005b82811015614ff357848901518255600182019150602085019450602081019050614fce565b86831015615010578489015161500c601f891682614bc2565b8355505b6001600288020188555050505b505050505050565b60007fff0000000000000000000000000000000000000000000000000000000000000082169050919050565b6000819050919050565b61506c61506782615025565b615051565b82525050565b600061507e828561505b565b60018201915061508e828461505b565b6001820191508190509392505050565b7f4d69736d61746368656420617272617973000000000000000000000000000000600082015250565b60006150d460118361399f565b91506150df8261509e565b602082019050919050565b60006020820190508181036000830152615103816150c7565b9050919050565b7f42617463682073697a6520312d32300000000000000000000000000000000000600082015250565b6000615140600f8361399f565b915061514b8261510a565b602082019050919050565b6000602082019050818103600083015261516f81615133565b9050919050565b600080fd5b600080fd5b600080fd5b600080833560016020038436030381126151a2576151a1615176565b5b80840192508235915067ffffffffffffffff8211156151c4576151c361517b565b5b6020830192506001820236038313156151e0576151df615180565b5b509250929050565b600081905092915050565b60006151fe82613994565b61520881856151e8565b93506152188185602086016139b0565b80840191505092915050565b600061523082846151f3565b915081905092915050565b600081546152488161456f565b61525281866151e8565b9450600182166000811461526d5760018114615282576152b5565b60ff19831686528115158202860193506152b5565b61528b85614a50565b60005b838110156152ad5781548189015260018201915060208101905061528e565b838801955050505b50505092915050565b7f2e6a736f6e000000000000000000000000000000000000000000000000000000600082015250565b60006152f46005836151e8565b91506152ff826152be565b600582019050919050565b600061531682856151f3565b9150615322828461523b565b915061532d826152e7565b91508190509392505050565b7f496e76616c6964206c6576656c00000000000000000000000000000000000000600082015250565b600061536f600d8361399f565b915061537a82615339565b602082019050919050565b6000602082019050818103600083015261539e81615362565b9050919050565b600081905092915050565b60008190508160005260206000209050919050565b600081546153d28161456f565b6153dc81866153a5565b945060018216600081146153f7576001811461540c5761543f565b60ff198316865281151582028601935061543f565b615415856153b0565b60005b8381101561543757815481890152600182019150602081019050615418565b838801955050505b50505092915050565b600061545482846153c5565b915081905092915050565b600081519050919050565b600082825260208201905092915050565b60006154868261545f565b615490818561546a565b93506154a08185602086016139b0565b6154a9816139da565b840191505092915050565b60006080820190506154c96000830187613adb565b6154d66020830186613adb565b6154e36040830185613b71565b81810360608301526154f5818461547b565b905095945050505050565b60008151905061550f81613905565b92915050565b60006020828403121561552b5761552a6138cf565b5b600061553984828501615500565b91505092915050565b7f4e487b7100000000000000000000000000000000000000000000000000000000600052603160045260246000fdfea2646970667358221220080153de61f4ac9c01e5e0f615b718e1a49a39868cb2bb806a71b1b72dcf7a4464736f6c63430008140033",
  "linkReferences": {},
  "deployedLinkReferences": {}
}