{
  "_format": "hh-sol-artifact-1",
  "contractName": "MycelToken",
  "sourceName": "contracts/staking/MycelToken.sol",
  "abi": [
    {
      "inputs": [
        {
          "internalType": "address",
          "name": "treasury",
          "type": "address"
        },
        {
          "internalType": "address",
          "name": "nftRewards",
          "type": "address"
        },
        {
          "internalType": "address",
          "name": "marketing",
          "type": "address"
        },
        {
          "internalType": "address",
          "name": "teamBeneficiary",
          "type": "address"
        },
        {
          "internalType": "address",
          "name": "ecosystem",
          "type": "address"
        }
      ],
      "stateMutability": "nonpayable",
      "type": "constructor"
    },
    {
      "anonymous": false,
      "inputs": [
        {
          "indexed": true,
          "internalType": "address",
          "name": "owner",
          "type": "address"
        },
        {
          "indexed": true,
          "internalType": "address",
          "name": "spender",
          "type": "address"
        },
        {
          "indexed": false,
          "internalType": "uint256",
          "name": "value",
          "type": "uint256"
        }
      ],
      "name": "Approval",
      "type": "event"
    },
    {
      "anonymous": false,
      "inputs": [
        {
          "indexed": true,
          "internalType": "address",
          "name": "previousOwner",
          "type": "address"
        },
        {
          "indexed": true,
          "internalType": "address",
          "name": "newOwner",
          "type": "address"
        }
      ],
      "name": "OwnershipTransferred",
      "type": "event"
    },
    {
      "anonymous": false,
      "inputs": [],
      "name": "TokensDistributed",
      "type": "event"
    },
    {
      "anonymous": false,
      "inputs": [],
      "name": "TradingEnabled",
      "type": "event"
    },
    {
      "anonymous": false,
      "inputs": [
        {
          "indexed": true,
          "internalType": "address",
          "name": "from",
          "type": "address"
        },
        {
          "indexed": true,
          "internalType": "address",
          "name": "to",
          "type": "address"
        },
        {
          "indexed": false,
          "internalType": "uint256",
          "name": "value",
          "type": "uint256"
        }
      ],
      "name": "Transfer",
      "type": "event"
    },
    {
      "inputs": [
        {
          "internalType": "address",
          "name": "owner",
          "type": "address"
        },
        {
          "internalType": "address",
          "name": "spender",
          "type": "address"
        }
      ],
      "name": "allowance",
      "outputs": [
        {
          "internalType": "uint256",
          "name": "",
          "type": "uint256"
        }
      ],
      "stateMutability": "view",
      "type": "function"
    },
    {
      "inputs": [
        {
          "internalType": "address",
          "name": "spender",
          "type": "address"
        },
        {
          "internalType": "uint256",
          "name": "amount",
          "type": "uint256"
        }
      ],
      "name": "approve",
      "outputs": [
        {
          "internalType": "bool",
          "name": "",
          "type": "bool"
        }
      ],
      "stateMutability": "nonpayable",
      "type": "function"
    },
    {
      "inputs": [
        {
          "internalType": "address",
          "name": "account",
          "type": "address"
        }
      ],
      "name": "balanceOf",
      "outputs": [
        {
          "internalType": "uint256",
          "name": "",
          "type": "uint256"
        }
      ],
      "stateMutability": "view",
      "type": "function"
    },
    {
      "inputs": [
        {
          "internalType": "uint256",
          "name": "amount",
          "type": "uint256"
        }
      ],
      "name": "burn",
      "outputs": [],
      "stateMutability": "nonpayable",
      "type": "function"
    },
    {
      "inputs": [
        {
          "internalType": "address",
          "name": "account",
          "type": "address"
        },
        {
          "internalType": "uint256",
          "name": "amount",
          "type": "uint256"
        }
      ],
      "name": "burnFrom",
      "outputs": [],
      "stateMutability": "nonpayable",
      "type": "function"
    },
    {
      "inputs": [],
      "name": "decimals",
      "outputs": [
        {
          "internalType": "uint8",
          "name": "",
          "type": "uint8"
        }
      ],
      "stateMutability": "view",
      "type": "function"
    },
    {
      "inputs": [
        {
          "internalType": "address",
          "name": "spender",
          "type": "address"
        },
        {
          "internalType": "uint256",
          "name": "subtractedValue",
          "type": "uint256"
        }
      ],
      "name": "decreaseAllowance",
      "outputs": [
        {
          "internalType": "bool",
          "name": "",
          "type": "bool"
        }
      ],
      "stateMutability": "nonpayable",
      "type": "function"
    },
    {
      "inputs": [],
      "name": "enableTrading",
      "outputs": [],
      "stateMutability": "nonpayable",
      "type": "function"
    },
    {
      "inputs": [
        {
          "internalType": "address",
          "name": "spender",
          "type": "address"
        },
        {
          "internalType": "uint256",
          "name": "addedValue",
          "type": "uint256"
        }
      ],
      "name": "increaseAllowance",
      "outputs": [
        {
          "internalType": "bool",
          "name": "",
          "type": "bool"
        }
      ],
      "stateMutability": "nonpayable",
      "type": "function"
    },
    {
      "inputs": [],
      "name": "name",
      "outputs": [
        {
          "internalType": "string",
          "name": "",
          "type": "string"
        }
      ],
      "stateMutability": "view",
      "type": "function"
    },
    {
      "inputs": [],
      "name": "owner",
      "outputs": [
        {
          "internalType": "address",
          "name": "",
          "type": "address"
        }
      ],
      "stateMutability": "view",
      "type": "function"
    },
    {
      "inputs": [],
      "name": "renounceOwnership",
      "outputs": [],
      "stateMutability": "nonpayable",
      "type": "function"
    },
    {
      "inputs": [],
      "name": "symbol",
      "outputs": [
        {
          "internalType": "string",
          "name": "",
          "type": "string"
        }
      ],
      "stateMutability": "view",
      "type": "function"
    },
    {
      "inputs": [],
      "name": "teamVesting",
      "outputs": [
        {
          "internalType": "contract VestingWallet",
          "name": "",
          "type": "address"
        }
      ],
      "stateMutability": "view",
      "type": "function"
    },
    {
      "inputs": [],
      "name": "totalSupply",
      "outputs": [
        {
          "internalType": "uint256",
          "name": "",
          "type": "uint256"
        }
      ],
      "stateMutability": "view",
      "type": "function"
    },
    {
      "inputs": [],
      "name": "tradingEnabled",
      "outputs": [
        {
          "internalType": "bool",
          "name": "",
          "type": "bool"
        }
      ],
      "stateMutability": "view",
      "type": "function"
    },
    {
      "inputs": [
        {
          "internalType": "address",
          "name": "to",
          "type": "address"
        },
        {
          "internalType": "uint256",
          "name": "amount",
          "type": "uint256"
        }
      ],
      "name": "transfer",
      "outputs": [
        {
          "internalType": "bool",
          "name": "",
          "type": "bool"
        }
      ],
      "stateMutability": "nonpayable",
      "type": "function"
    },
    {
      "inputs": [
        {
          "internalType": "address",
          "name": "from",
          "type": "address"
        },
        {
          "internalType": "address",
          "name": "to",
          "type": "address"
        },
        {
          "internalType": "uint256",
          "name": "amount",
          "type": "uint256"
        }
      ],
      "name": "transferFrom",
      "outputs": [
        {
          "internalType": "bool",
          "name": "",
          "type": "bool"
        }
      ],
      "stateMutability": "nonpayable",
      "type": "function"
    },
    {
      "inputs": [
        {
          "internalType": "address",
          "name": "newOwner",
          "type": "address"
        }
      ],
      "name": "transferOwnership",
      "outputs": [],
      "stateMutability": "nonpayable",
      "type": "function"
    }
  ],
  "bytecode": "0x60806040523480156200001157600080fd5b506040516200457838038062004578833981810160405281019062000037919062000a0b565b6040518060400160405280600b81526020017f4d7963656c20546f6b656e0000000000000000000000000000000000000000008152506040518060400160405280600581526020017f4d5943454c0000000000000000000000000000000000000000000000000000008152508160039081620000b4919062000d0d565b508060049081620000c6919062000d0d565b505050620000e9620000dd6200035460201b60201c565b6200035c60201b60201c565b6000620000fb6200042260201b60201c565b600a62000109919062000f84565b6298968062000119919062000fd5565b90506200012d33826200042b60201b60201c565b600042905060006303c2670090508482826040516200014c9062000993565b6200015a9392919062001056565b604051809103906000f08015801562000177573d6000803e3d6000fd5b50600660006101000a81548173ffffffffffffffffffffffffffffffffffffffff021916908373ffffffffffffffffffffffffffffffffffffffff160217905550620001f83389620001ce6200042260201b60201c565b600a620001dc919062000f84565b623d0900620001ec919062000fd5565b6200059860201b60201c565b6200023833886200020e6200042260201b60201c565b600a6200021c919062000f84565b623567e06200022c919062000fd5565b6200059860201b60201c565b6200027833876200024e6200042260201b60201c565b600a6200025c919062000f84565b620f42406200026c919062000fd5565b6200059860201b60201c565b620002da33600660009054906101000a900473ffffffffffffffffffffffffffffffffffffffff16620002b06200042260201b60201c565b600a620002be919062000f84565b620f4240620002ce919062000fd5565b6200059860201b60201c565b6200031a3385620002f06200042260201b60201c565b600a620002fe919062000f84565b6207a1206200030e919062000fd5565b6200059860201b60201c565b7fcea85459abe456c560868e61c476933dcee35a72aba5f546e93715929a69618660405160405180910390a15050505050505050620013b9565b600033905090565b6000600560009054906101000a900473ffffffffffffffffffffffffffffffffffffffff16905081600560006101000a81548173ffffffffffffffffffffffffffffffffffffffff021916908373ffffffffffffffffffffffffffffffffffffffff1602179055508173ffffffffffffffffffffffffffffffffffffffff168173ffffffffffffffffffffffffffffffffffffffff167f8be0079c531659141344cd1fd0a4f28419497f9722a3daafe3b4186f6b6457e060405160405180910390a35050565b60006012905090565b600073ffffffffffffffffffffffffffffffffffffffff168273ffffffffffffffffffffffffffffffffffffffff16036200049d576040517f08c379a00000000000000000000000000000000000000000000000000000000081526004016200049490620010f4565b60405180910390fd5b620004b1600083836200082960201b60201c565b8060026000828254620004c5919062001116565b92505081905550806000808473ffffffffffffffffffffffffffffffffffffffff1673ffffffffffffffffffffffffffffffffffffffff168152602001908152602001600020600082825401925050819055508173ffffffffffffffffffffffffffffffffffffffff16600073ffffffffffffffffffffffffffffffffffffffff167fddf252ad1be2c89b69c2b068fc378daa952ba7f163c4a11628f55a4df523b3ef8360405162000578919062001162565b60405180910390a362000594600083836200095f60201b60201c565b5050565b600073ffffffffffffffffffffffffffffffffffffffff168373ffffffffffffffffffffffffffffffffffffffff16036200060a576040517f08c379a00000000000000000000000000000000000000000000000000000000081526004016200060190620011f5565b60405180910390fd5b600073ffffffffffffffffffffffffffffffffffffffff168273ffffffffffffffffffffffffffffffffffffffff16036200067c576040517f08c379a000000000000000000000000000000000000000000000000000000000815260040162000673906200128d565b60405180910390fd5b6200068f8383836200082960201b60201c565b60008060008573ffffffffffffffffffffffffffffffffffffffff1673ffffffffffffffffffffffffffffffffffffffff1681526020019081526020016000205490508181101562000718576040517f08c379a00000000000000000000000000000000000000000000000000000000081526004016200070f9062001325565b60405180910390fd5b8181036000808673ffffffffffffffffffffffffffffffffffffffff1673ffffffffffffffffffffffffffffffffffffffff16815260200190815260200160002081905550816000808573ffffffffffffffffffffffffffffffffffffffff1673ffffffffffffffffffffffffffffffffffffffff168152602001908152602001600020600082825401925050819055508273ffffffffffffffffffffffffffffffffffffffff168473ffffffffffffffffffffffffffffffffffffffff167fddf252ad1be2c89b69c2b068fc378daa952ba7f163c4a11628f55a4df523b3ef8460405162000808919062001162565b60405180910390a3620008238484846200095f60201b60201c565b50505050565b600560149054906101000a900460ff16158015620008825750620008526200096460201b60201c565b73ffffffffffffffffffffffffffffffffffffffff168373ffffffffffffffffffffffffffffffffffffffff1614155b8015620008ca57506200089a6200096460201b60201c565b73ffffffffffffffffffffffffffffffffffffffff168273ffffffffffffffffffffffffffffffffffffffff1614155b8015620009045750600073ffffffffffffffffffffffffffffffffffffffff168373ffffffffffffffffffffffffffffffffffffffff1614155b1562000947576040517f08c379a00000000000000000000000000000000000000000000000000000000081526004016200093e9062001397565b60405180910390fd5b6200095a8383836200098e60201b60201c565b505050565b505050565b6000600560009054906101000a900473ffffffffffffffffffffffffffffffffffffffff16905090565b505050565b61153f806200303983390190565b600080fd5b600073ffffffffffffffffffffffffffffffffffffffff82169050919050565b6000620009d382620009a6565b9050919050565b620009e581620009c6565b8114620009f157600080fd5b50565b60008151905062000a0581620009da565b92915050565b600080600080600060a0868803121562000a2a5762000a29620009a1565b5b600062000a3a88828901620009f4565b955050602062000a4d88828901620009f4565b945050604062000a6088828901620009f4565b935050606062000a7388828901620009f4565b925050608062000a8688828901620009f4565b9150509295509295909350565b600081519050919050565b7f4e487b7100000000000000000000000000000000000000000000000000000000600052604160045260246000fd5b7f4e487b7100000000000000000000000000000000000000000000000000000000600052602260045260246000fd5b6000600282049050600182168062000b1557607f821691505b60208210810362000b2b5762000b2a62000acd565b5b50919050565b60008190508160005260206000209050919050565b60006020601f8301049050919050565b600082821b905092915050565b60006008830262000b957fffffffffffffffffffffffffffffffffffffffffffffffffffffffffffffffff8262000b56565b62000ba1868362000b56565b95508019841693508086168417925050509392505050565b6000819050919050565b6000819050919050565b600062000bee62000be862000be28462000bb9565b62000bc3565b62000bb9565b9050919050565b6000819050919050565b62000c0a8362000bcd565b62000c2262000c198262000bf5565b84845462000b63565b825550505050565b600090565b62000c3962000c2a565b62000c4681848462000bff565b505050565b5b8181101562000c6e5762000c6260008262000c2f565b60018101905062000c4c565b5050565b601f82111562000cbd5762000c878162000b31565b62000c928462000b46565b8101602085101562000ca2578190505b62000cba62000cb18562000b46565b83018262000c4b565b50505b505050565b600082821c905092915050565b600062000ce26000198460080262000cc2565b1980831691505092915050565b600062000cfd838362000ccf565b9150826002028217905092915050565b62000d188262000a93565b67ffffffffffffffff81111562000d345762000d3362000a9e565b5b62000d40825462000afc565b62000d4d82828562000c72565b600060209050601f83116001811462000d85576000841562000d70578287015190505b62000d7c858262000cef565b86555062000dec565b601f19841662000d958662000b31565b60005b8281101562000dbf5784890151825560018201915060208501945060208101905062000d98565b8683101562000ddf578489015162000ddb601f89168262000ccf565b8355505b6001600288020188555050505b505050505050565b7f4e487b7100000000000000000000000000000000000000000000000000000000600052601160045260246000fd5b60008160011c9050919050565b6000808291508390505b600185111562000e825780860481111562000e5a5762000e5962000df4565b5b600185161562000e6a5780820291505b808102905062000e7a8562000e23565b945062000e3a565b94509492505050565b60008262000e9d576001905062000f70565b8162000ead576000905062000f70565b816001811462000ec6576002811462000ed15762000f07565b600191505062000f70565b60ff84111562000ee65762000ee562000df4565b5b8360020a91508482111562000f005762000eff62000df4565b5b5062000f70565b5060208310610133831016604e8410600b841016171562000f415782820a90508381111562000f3b5762000f3a62000df4565b5b62000f70565b62000f50848484600162000e30565b9250905081840481111562000f6a5762000f6962000df4565b5b81810290505b9392505050565b600060ff82169050919050565b600062000f918262000bb9565b915062000f9e8362000f77565b925062000fcd7fffffffffffffffffffffffffffffffffffffffffffffffffffffffffffffffff848462000e8b565b905092915050565b600062000fe28262000bb9565b915062000fef8362000bb9565b925082820262000fff8162000bb9565b9150828204841483151762001019576200101862000df4565b5b5092915050565b6200102b81620009c6565b82525050565b600067ffffffffffffffff82169050919050565b620010508162001031565b82525050565b60006060820190506200106d600083018662001020565b6200107c602083018562001045565b6200108b604083018462001045565b949350505050565b600082825260208201905092915050565b7f45524332303a206d696e7420746f20746865207a65726f206164647265737300600082015250565b6000620010dc601f8362001093565b9150620010e982620010a4565b602082019050919050565b600060208201905081810360008301526200110f81620010cd565b9050919050565b6000620011238262000bb9565b9150620011308362000bb9565b92508282019050808211156200114b576200114a62000df4565b5b92915050565b6200115c8162000bb9565b82525050565b600060208201905062001179600083018462001151565b92915050565b7f45524332303a207472616e736665722066726f6d20746865207a65726f20616460008201527f6472657373000000000000000000000000000000000000000000000000000000602082015250565b6000620011dd60258362001093565b9150620011ea826200117f565b604082019050919050565b600060208201905081810360008301526200121081620011ce565b9050919050565b7f45524332303a207472616e7366657220746f20746865207a65726f206164647260008201527f6573730000000000000000000000000000000000000000000000000000000000602082015250565b60006200127560238362001093565b9150620012828262001217565b604082019050919050565b60006020820190508181036000830152620012a88162001266565b9050919050565b7f45524332303a207472616e7366657220616d6f756e742065786365656473206260008201527f616c616e63650000000000000000000000000000000000000000000000000000602082015250565b60006200130d60268362001093565b91506200131a82620012af565b604082019050919050565b600060208201905081810360008301526200134081620012fe565b9050919050565b7f54726164696e67206e6f7420656e61626c656420796574000000000000000000600082015250565b60006200137f60178362001093565b91506200138c8262001347565b602082019050919050565b60006020820190508181036000830152620013b28162001370565b9050919050565b611c7080620013c96000396000f3fe608060405234801561001057600080fd5b50600436106101215760003560e01c806370a08231116100ad57806395d89b411161007157806395d89b41146102e6578063a457c2d714610304578063a9059cbb14610334578063dd62ed3e14610364578063f2fde38b1461039457610121565b806370a0823114610268578063715018a61461029857806379cc6790146102a25780638a8c523c146102be5780638da5cb5b146102c857610121565b8063313ce567116100f4578063313ce567146101c257806339509351146101e057806342966c68146102105780634ada218b1461022c578063619f3d6c1461024a57610121565b806306fdde0314610126578063095ea7b31461014457806318160ddd1461017457806323b872dd14610192575b600080fd5b61012e6103b0565b60405161013b91906111ee565b60405180910390f35b61015e600480360381019061015991906112a9565b610442565b60405161016b9190611304565b60405180910390f35b61017c610465565b604051610189919061132e565b60405180910390f35b6101ac60048036038101906101a79190611349565b61046f565b6040516101b99190611304565b60405180910390f35b6101ca61049e565b6040516101d791906113b8565b60405180910390f35b6101fa60048036038101906101f591906112a9565b6104a7565b6040516102079190611304565b60405180910390f35b61022a600480360381019061022591906113d3565b6104de565b005b6102346104f2565b6040516102419190611304565b60405180910390f35b610252610505565b60405161025f919061145f565b60405180910390f35b610282600480360381019061027d919061147a565b61052b565b60405161028f919061132e565b60405180910390f35b6102a0610573565b005b6102bc60048036038101906102b791906112a9565b610587565b005b6102c66105a7565b005b6102d06105f8565b6040516102dd91906114b6565b60405180910390f35b6102ee610622565b6040516102fb91906111ee565b60405180910390f35b61031e600480360381019061031991906112a9565b6106b4565b60405161032b9190611304565b60405180910390f35b61034e600480360381019061034991906112a9565b61072b565b60405161035b9190611304565b60405180910390f35b61037e600480360381019061037991906114d1565b61074e565b60405161038b919061132e565b60405180910390f35b6103ae60048036038101906103a9919061147a565b6107d5565b005b6060600380546103bf90611540565b80601f01602080910402602001604051908101604052809291908181526020018280546103eb90611540565b80156104385780601f1061040d57610100808354040283529160200191610438565b820191906000526020600020905b81548152906001019060200180831161041b57829003601f168201915b5050505050905090565b60008061044d610858565b905061045a818585610860565b600191505092915050565b6000600254905090565b60008061047a610858565b9050610487858285610a29565b610492858585610ab5565b60019150509392505050565b60006012905090565b6000806104b2610858565b90506104d38185856104c4858961074e565b6104ce91906115a0565b610860565b600191505092915050565b6104ef6104e9610858565b82610d2b565b50565b600560149054906101000a900460ff1681565b600660009054906101000a900473ffffffffffffffffffffffffffffffffffffffff1681565b60008060008373ffffffffffffffffffffffffffffffffffffffff1673ffffffffffffffffffffffffffffffffffffffff168152602001908152602001600020549050919050565b61057b610ef8565b6105856000610f76565b565b61059982610593610858565b83610a29565b6105a38282610d2b565b5050565b6105af610ef8565b6001600560146101000a81548160ff0219169083151502179055507f799663458a5ef2936f7fa0c99b3336c69c25890f82974f04e811e5bb359186c760405160405180910390a1565b6000600560009054906101000a900473ffffffffffffffffffffffffffffffffffffffff16905090565b60606004805461063190611540565b80601f016020809104026020016040519081016040528092919081815260200182805461065d90611540565b80156106aa5780601f1061067f576101008083540402835291602001916106aa565b820191906000526020600020905b81548152906001019060200180831161068d57829003601f168201915b5050505050905090565b6000806106bf610858565b905060006106cd828661074e565b905083811015610712576040517f08c379a000000000000000000000000000000000000000000000000000000000815260040161070990611646565b60405180910390fd5b61071f8286868403610860565b60019250505092915050565b600080610736610858565b9050610743818585610ab5565b600191505092915050565b6000600160008473ffffffffffffffffffffffffffffffffffffffff1673ffffffffffffffffffffffffffffffffffffffff16815260200190815260200160002060008373ffffffffffffffffffffffffffffffffffffffff1673ffffffffffffffffffffffffffffffffffffffff16815260200190815260200160002054905092915050565b6107dd610ef8565b600073ffffffffffffffffffffffffffffffffffffffff168173ffffffffffffffffffffffffffffffffffffffff160361084c576040517f08c379a0000000000000000000000000000000000000000000000000000000008152600401610843906116d8565b60405180910390fd5b61085581610f76565b50565b600033905090565b600073ffffffffffffffffffffffffffffffffffffffff168373ffffffffffffffffffffffffffffffffffffffff16036108cf576040517f08c379a00000000000000000000000000000000000000000000000000000000081526004016108c69061176a565b60405180910390fd5b600073ffffffffffffffffffffffffffffffffffffffff168273ffffffffffffffffffffffffffffffffffffffff160361093e576040517f08c379a0000000000000000000000000000000000000000000000000000000008152600401610935906117fc565b60405180910390fd5b80600160008573ffffffffffffffffffffffffffffffffffffffff1673ffffffffffffffffffffffffffffffffffffffff16815260200190815260200160002060008473ffffffffffffffffffffffffffffffffffffffff1673ffffffffffffffffffffffffffffffffffffffff168152602001908152602001600020819055508173ffffffffffffffffffffffffffffffffffffffff168373ffffffffffffffffffffffffffffffffffffffff167f8c5be1e5ebec7d5bd14f71427d1e84f3dd0314c0f7b2291e5b200ac8c7c3b92583604051610a1c919061132e565b60405180910390a3505050565b6000610a35848461074e565b90507fffffffffffffffffffffffffffffffffffffffffffffffffffffffffffffffff8114610aaf5781811015610aa1576040517f08c379a0000000000000000000000000000000000000000000000000000000008152600401610a9890611868565b60405180910390fd5b610aae8484848403610860565b5b50505050565b600073ffffffffffffffffffffffffffffffffffffffff168373ffffffffffffffffffffffffffffffffffffffff1603610b24576040517f08c379a0000000000000000000000000000000000000000000000000000000008152600401610b1b906118fa565b60405180910390fd5b600073ffffffffffffffffffffffffffffffffffffffff168273ffffffffffffffffffffffffffffffffffffffff1603610b93576040517f08c379a0000000000000000000000000000000000000000000000000000000008152600401610b8a9061198c565b60405180910390fd5b610b9e83838361103c565b60008060008573ffffffffffffffffffffffffffffffffffffffff1673ffffffffffffffffffffffffffffffffffffffff16815260200190815260200160002054905081811015610c24576040517f08c379a0000000000000000000000000000000000000000000000000000000008152600401610c1b90611a1e565b60405180910390fd5b8181036000808673ffffffffffffffffffffffffffffffffffffffff1673ffffffffffffffffffffffffffffffffffffffff16815260200190815260200160002081905550816000808573ffffffffffffffffffffffffffffffffffffffff1673ffffffffffffffffffffffffffffffffffffffff168152602001908152602001600020600082825401925050819055508273ffffffffffffffffffffffffffffffffffffffff168473ffffffffffffffffffffffffffffffffffffffff167fddf252ad1be2c89b69c2b068fc378daa952ba7f163c4a11628f55a4df523b3ef84604051610d12919061132e565b60405180910390a3610d25848484611154565b50505050565b600073ffffffffffffffffffffffffffffffffffffffff168273ffffffffffffffffffffffffffffffffffffffff1603610d9a576040517f08c379a0000000000000000000000000000000000000000000000000000000008152600401610d9190611ab0565b60405180910390fd5b610da68260008361103c565b60008060008473ffffffffffffffffffffffffffffffffffffffff1673ffffffffffffffffffffffffffffffffffffffff16815260200190815260200160002054905081811015610e2c576040517f08c379a0000000000000000000000000000000000000000000000000000000008152600401610e2390611b42565b60405180910390fd5b8181036000808573ffffffffffffffffffffffffffffffffffffffff1673ffffffffffffffffffffffffffffffffffffffff1681526020019081526020016000208190555081600260008282540392505081905550600073ffffffffffffffffffffffffffffffffffffffff168373ffffffffffffffffffffffffffffffffffffffff167fddf252ad1be2c89b69c2b068fc378daa952ba7f163c4a11628f55a4df523b3ef84604051610edf919061132e565b60405180910390a3610ef383600084611154565b505050565b610f00610858565b73ffffffffffffffffffffffffffffffffffffffff16610f1e6105f8565b73ffffffffffffffffffffffffffffffffffffffff1614610f74576040517f08c379a0000000000000000000000000000000000000000000000000000000008152600401610f6b90611bae565b60405180910390fd5b565b6000600560009054906101000a900473ffffffffffffffffffffffffffffffffffffffff16905081600560006101000a81548173ffffffffffffffffffffffffffffffffffffffff021916908373ffffffffffffffffffffffffffffffffffffffff1602179055508173ffffffffffffffffffffffffffffffffffffffff168173ffffffffffffffffffffffffffffffffffffffff167f8be0079c531659141344cd1fd0a4f28419497f9722a3daafe3b4186f6b6457e060405160405180910390a35050565b600560149054906101000a900460ff1615801561108c575061105c6105f8565b73ffffffffffffffffffffffffffffffffffffffff168373ffffffffffffffffffffffffffffffffffffffff1614155b80156110cb575061109b6105f8565b73ffffffffffffffffffffffffffffffffffffffff168273ffffffffffffffffffffffffffffffffffffffff1614155b80156111045750600073ffffffffffffffffffffffffffffffffffffffff168373ffffffffffffffffffffffffffffffffffffffff1614155b15611144576040517f08c379a000000000000000000000000000000000000000000000000000000000815260040161113b90611c1a565b60405180910390fd5b61114f838383611159565b505050565b505050565b505050565b600081519050919050565b600082825260208201905092915050565b60005b8381101561119857808201518184015260208101905061117d565b60008484015250505050565b6000601f19601f8301169050919050565b60006111c08261115e565b6111ca8185611169565b93506111da81856020860161117a565b6111e3816111a4565b840191505092915050565b6000602082019050818103600083015261120881846111b5565b905092915050565b600080fd5b600073ffffffffffffffffffffffffffffffffffffffff82169050919050565b600061124082611215565b9050919050565b61125081611235565b811461125b57600080fd5b50565b60008135905061126d81611247565b92915050565b6000819050919050565b61128681611273565b811461129157600080fd5b50565b6000813590506112a38161127d565b92915050565b600080604083850312156112c0576112bf611210565b5b60006112ce8582860161125e565b92505060206112df85828601611294565b9150509250929050565b60008115159050919050565b6112fe816112e9565b82525050565b600060208201905061131960008301846112f5565b92915050565b61132881611273565b82525050565b6000602082019050611343600083018461131f565b92915050565b60008060006060848603121561136257611361611210565b5b60006113708682870161125e565b93505060206113818682870161125e565b925050604061139286828701611294565b9150509250925092565b600060ff82169050919050565b6113b28161139c565b82525050565b60006020820190506113cd60008301846113a9565b92915050565b6000602082840312156113e9576113e8611210565b5b60006113f784828501611294565b91505092915050565b6000819050919050565b600061142561142061141b84611215565b611400565b611215565b9050919050565b60006114378261140a565b9050919050565b60006114498261142c565b9050919050565b6114598161143e565b82525050565b60006020820190506114746000830184611450565b92915050565b6000602082840312156114905761148f611210565b5b600061149e8482850161125e565b91505092915050565b6114b081611235565b82525050565b60006020820190506114cb60008301846114a7565b92915050565b600080604083850312156114e8576114e7611210565b5b60006114f68582860161125e565b92505060206115078582860161125e565b9150509250929050565b7f4e487b7100000000000000000000000000000000000000000000000000000000600052602260045260246000fd5b6000600282049050600182168061155857607f821691505b60208210810361156b5761156a611511565b5b50919050565b7f4e487b7100000000000000000000000000000000000000000000000000000000600052601160045260246000fd5b60006115ab82611273565b91506115b683611273565b92508282019050808211156115ce576115cd611571565b5b92915050565b7f45524332303a2064656372656173656420616c6c6f77616e63652062656c6f7760008201527f207a65726f000000000000000000000000000000000000000000000000000000602082015250565b6000611630602583611169565b915061163b826115d4565b604082019050919050565b6000602082019050818103600083015261165f81611623565b9050919050565b7f4f776e61626c653a206e6577206f776e657220697320746865207a65726f206160008201527f6464726573730000000000000000000000000000000000000000000000000000602082015250565b60006116c2602683611169565b91506116cd82611666565b604082019050919050565b600060208201905081810360008301526116f1816116b5565b9050919050565b7f45524332303a20617070726f76652066726f6d20746865207a65726f2061646460008201527f7265737300000000000000000000000000000000000000000000000000000000602082015250565b6000611754602483611169565b915061175f826116f8565b604082019050919050565b6000602082019050818103600083015261178381611747565b9050919050565b7f45524332303a20617070726f766520746f20746865207a65726f20616464726560008201527f7373000000000000000000000000000000000000000000000000000000000000602082015250565b60006117e6602283611169565b91506117f18261178a565b604082019050919050565b60006020820190508181036000830152611815816117d9565b9050919050565b7f45524332303a20696e73756666696369656e7420616c6c6f77616e6365000000600082015250565b6000611852601d83611169565b915061185d8261181c565b602082019050919050565b6000602082019050818103600083015261188181611845565b9050919050565b7f45524332303a207472616e736665722066726f6d20746865207a65726f20616460008201527f6472657373000000000000000000000000000000000000000000000000000000602082015250565b60006118e4602583611169565b91506118ef82611888565b604082019050919050565b60006020820190508181036000830152611913816118d7565b9050919050565b7f45524332303a207472616e7366657220746f20746865207a65726f206164647260008201527f6573730000000000000000000000000000000000000000000000000000000000602082015250565b6000611976602383611169565b91506119818261191a565b604082019050919050565b600060208201905081810360008301526119a581611969565b9050919050565b7f45524332303a207472616e7366657220616d6f756e742065786365656473206260008201527f616c616e63650000000000000000000000000000000000000000000000000000602082015250565b6000611a08602683611169565b9150611a13826119ac565b604082019050919050565b60006020820190508181036000830152611a37816119fb565b9050919050565b7f45524332303a206275726e2066726f6d20746865207a65726f2061646472657360008201527f7300000000000000000000000000000000000000000000000000000000000000602082015250565b6000611a9a602183611169565b9150611aa582611a3e565b604082019050919050565b60006020820190508181036000830152611ac981611a8d565b9050919050565b7f45524332303a206275726e20616d6f756e7420657863656564732062616c616e60008201527f6365000000000000000000000000000000000000000000000000000000000000602082015250565b6000611b2c602283611169565b9150611b3782611ad0565b604082019050919050565b60006020820190508181036000830152611b5b81611b1f565b9050919050565b7f4f776e61626c653a2063616c6c6572206973206e6f7420746865206f776e6572600082015250565b6000611b98602083611169565b9150611ba382611b62565b602082019050919050565b60006020820190508181036000830152611bc781611b8b565b9050919050565b7f54726164696e67206e6f7420656e61626c656420796574000000000000000000600082015250565b6000611c04601783611169565b9150611c0f82611bce565b602082019050919050565b60006020820190508181036000830152611c3381611bf7565b905091905056fea26469706673582212201d38fa6246672e6dd4c1f373deb30626c888dc612524687f1f76cfcb8b241b7064736f6c6343000814003360e06040526040516200153f3803806200153f8339818101604052810190620000299190620001bf565b600073ffffffffffffffffffffffffffffffffffffffff168373ffffffffffffffffffffffffffffffffffffffff16036200009b576040517f08c379a00000000000000000000000000000000000000000000000000000000081526004016200009290620002a2565b60405180910390fd5b8273ffffffffffffffffffffffffffffffffffffffff1660808173ffffffffffffffffffffffffffffffffffffffff16815250508167ffffffffffffffff1660a08167ffffffffffffffff16815250508067ffffffffffffffff1660c08167ffffffffffffffff1681525050505050620002c4565b600080fd5b600073ffffffffffffffffffffffffffffffffffffffff82169050919050565b6000620001428262000115565b9050919050565b620001548162000135565b81146200016057600080fd5b50565b600081519050620001748162000149565b92915050565b600067ffffffffffffffff82169050919050565b62000199816200017a565b8114620001a557600080fd5b50565b600081519050620001b9816200018e565b92915050565b600080600060608486031215620001db57620001da62000110565b5b6000620001eb8682870162000163565b9350506020620001fe86828701620001a8565b92505060406200021186828701620001a8565b9150509250925092565b600082825260208201905092915050565b7f56657374696e6757616c6c65743a2062656e6566696369617279206973207a6560008201527f726f206164647265737300000000000000000000000000000000000000000000602082015250565b60006200028a602a836200021b565b915062000297826200022c565b604082019050919050565b60006020820190508181036000830152620002bd816200027b565b9050919050565b60805160a05160c05161124b620002f460003960006102e001526000610588015260006103d9015261124b6000f3fe6080604052600436106100a05760003560e01c806386d1a69f1161006457806386d1a69f146101a557806396132521146101bc5780639852595c146101e7578063a3f8eace14610224578063be9a655514610261578063fbccedae1461028c576100a7565b80630a17b06b146100ac5780630fb5a6b4146100e9578063191655871461011457806338af3eed1461013d578063810ec23b14610168576100a7565b366100a757005b600080fd5b3480156100b857600080fd5b506100d360048036038101906100ce9190610ac6565b6102b7565b6040516100e09190610b0c565b60405180910390f35b3480156100f557600080fd5b506100fe6102dc565b60405161010b9190610b0c565b60405180910390f35b34801561012057600080fd5b5061013b60048036038101906101369190610b85565b61030e565b005b34801561014957600080fd5b506101526103d5565b60405161015f9190610bc1565b60405180910390f35b34801561017457600080fd5b5061018f600480360381019061018a9190610bdc565b6103fd565b60405161019c9190610b0c565b60405180910390f35b3480156101b157600080fd5b506101ba61049d565b005b3480156101c857600080fd5b506101d161050c565b6040516101de9190610b0c565b60405180910390f35b3480156101f357600080fd5b5061020e60048036038101906102099190610b85565b610515565b60405161021b9190610b0c565b60405180910390f35b34801561023057600080fd5b5061024b60048036038101906102469190610b85565b61055e565b6040516102589190610b0c565b60405180910390f35b34801561026d57600080fd5b50610276610584565b6040516102839190610b0c565b60405180910390f35b34801561029857600080fd5b506102a16105b6565b6040516102ae9190610b0c565b60405180910390f35b60006102d56102c461050c565b476102cf9190610c4b565b836105d8565b9050919050565b60007f000000000000000000000000000000000000000000000000000000000000000067ffffffffffffffff16905090565b60006103198261055e565b905080600160008473ffffffffffffffffffffffffffffffffffffffff1673ffffffffffffffffffffffffffffffffffffffff168152602001908152602001600020600082825461036a9190610c4b565b925050819055508173ffffffffffffffffffffffffffffffffffffffff167fc0e523490dd523c33b1878c9eb14ff46991e3f5b2cd33710918618f2a39cba1b826040516103b79190610b0c565b60405180910390a26103d1826103cb6103d5565b83610672565b5050565b60007f0000000000000000000000000000000000000000000000000000000000000000905090565b600061049561040b84610515565b8473ffffffffffffffffffffffffffffffffffffffff166370a08231306040518263ffffffff1660e01b81526004016104449190610bc1565b602060405180830381865afa158015610461573d6000803e3d6000fd5b505050506040513d601f19601f820116820180604052508101906104859190610cab565b61048f9190610c4b565b836105d8565b905092915050565b60006104a76105b6565b9050806000808282546104ba9190610c4b565b925050819055507fda9d4e5f101b8b9b1c5b76d0c5a9f7923571acfc02376aa076b75a8c080c956b816040516104f09190610b0c565b60405180910390a16105096105036103d5565b826106f8565b50565b60008054905090565b6000600160008373ffffffffffffffffffffffffffffffffffffffff1673ffffffffffffffffffffffffffffffffffffffff168152602001908152602001600020549050919050565b600061056982610515565b61057383426103fd565b61057d9190610cd8565b9050919050565b60007f000000000000000000000000000000000000000000000000000000000000000067ffffffffffffffff16905090565b60006105c061050c565b6105c9426102b7565b6105d39190610cd8565b905090565b60006105e2610584565b8267ffffffffffffffff1610156105fc576000905061066c565b6106046102dc565b61060c610584565b6106169190610c4b565b8267ffffffffffffffff16111561062f5782905061066c565b6106376102dc565b61063f610584565b8367ffffffffffffffff166106549190610cd8565b8461065f9190610d0c565b6106699190610d7d565b90505b92915050565b6106f38363a9059cbb60e01b8484604051602401610691929190610dae565b604051602081830303815290604052907bffffffffffffffffffffffffffffffffffffffffffffffffffffffff19166020820180517bffffffffffffffffffffffffffffffffffffffffffffffffffffffff83818316178352505050506107ec565b505050565b8047101561073b576040517f08c379a000000000000000000000000000000000000000000000000000000000815260040161073290610e34565b60405180910390fd5b60008273ffffffffffffffffffffffffffffffffffffffff168260405161076190610e85565b60006040518083038185875af1925050503d806000811461079e576040519150601f19603f3d011682016040523d82523d6000602084013e6107a3565b606091505b50509050806107e7576040517f08c379a00000000000000000000000000000000000000000000000000000000081526004016107de90610f0c565b60405180910390fd5b505050565b600061084e826040518060400160405280602081526020017f5361666545524332303a206c6f772d6c6576656c2063616c6c206661696c65648152508573ffffffffffffffffffffffffffffffffffffffff166108b49092919063ffffffff16565b905060008151148061087057508080602001905181019061086f9190610f64565b5b6108af576040517f08c379a00000000000000000000000000000000000000000000000000000000081526004016108a690611003565b60405180910390fd5b505050565b60606108c384846000856108cc565b90509392505050565b606082471015610911576040517f08c379a000000000000000000000000000000000000000000000000000000000815260040161090890611095565b60405180910390fd5b6000808673ffffffffffffffffffffffffffffffffffffffff16858760405161093a919061111b565b60006040518083038185875af1925050503d8060008114610977576040519150601f19603f3d011682016040523d82523d6000602084013e61097c565b606091505b509150915061098d87838387610999565b92505050949350505050565b606083156109fb5760008351036109f3576109b385610a0e565b6109f2576040517f08c379a00000000000000000000000000000000000000000000000000000000081526004016109e99061117e565b60405180910390fd5b5b829050610a06565b610a058383610a31565b5b949350505050565b6000808273ffffffffffffffffffffffffffffffffffffffff163b119050919050565b600082511115610a445781518083602001fd5b806040517f08c379a0000000000000000000000000000000000000000000000000000000008152600401610a7891906111f3565b60405180910390fd5b600080fd5b600067ffffffffffffffff82169050919050565b610aa381610a86565b8114610aae57600080fd5b50565b600081359050610ac081610a9a565b92915050565b600060208284031215610adc57610adb610a81565b5b6000610aea84828501610ab1565b91505092915050565b6000819050919050565b610b0681610af3565b82525050565b6000602082019050610b216000830184610afd565b92915050565b600073ffffffffffffffffffffffffffffffffffffffff82169050919050565b6000610b5282610b27565b9050919050565b610b6281610b47565b8114610b6d57600080fd5b50565b600081359050610b7f81610b59565b92915050565b600060208284031215610b9b57610b9a610a81565b5b6000610ba984828501610b70565b91505092915050565b610bbb81610b47565b82525050565b6000602082019050610bd66000830184610bb2565b92915050565b60008060408385031215610bf357610bf2610a81565b5b6000610c0185828601610b70565b9250506020610c1285828601610ab1565b9150509250929050565b7f4e487b7100000000000000000000000000000000000000000000000000000000600052601160045260246000fd5b6000610c5682610af3565b9150610c6183610af3565b9250828201905080821115610c7957610c78610c1c565b5b92915050565b610c8881610af3565b8114610c9357600080fd5b50565b600081519050610ca581610c7f565b92915050565b600060208284031215610cc157610cc0610a81565b5b6000610ccf84828501610c96565b91505092915050565b6000610ce382610af3565b9150610cee83610af3565b9250828203905081811115610d0657610d05610c1c565b5b92915050565b6000610d1782610af3565b9150610d2283610af3565b9250828202610d3081610af3565b91508282048414831517610d4757610d46610c1c565b5b5092915050565b7f4e487b7100000000000000000000000000000000000000000000000000000000600052601260045260246000fd5b6000610d8882610af3565b9150610d9383610af3565b925082610da357610da2610d4e565b5b828204905092915050565b6000604082019050610dc36000830185610bb2565b610dd06020830184610afd565b9392505050565b600082825260208201905092915050565b7f416464726573733a20696e73756666696369656e742062616c616e6365000000600082015250565b6000610e1e601d83610dd7565b9150610e2982610de8565b602082019050919050565b60006020820190508181036000830152610e4d81610e11565b9050919050565b600081905092915050565b50565b6000610e6f600083610e54565b9150610e7a82610e5f565b600082019050919050565b6000610e9082610e62565b9150819050919050565b7f416464726573733a20756e61626c6520746f2073656e642076616c75652c207260008201527f6563697069656e74206d61792068617665207265766572746564000000000000602082015250565b6000610ef6603a83610dd7565b9150610f0182610e9a565b604082019050919050565b60006020820190508181036000830152610f2581610ee9565b9050919050565b60008115159050919050565b610f4181610f2c565b8114610f4c57600080fd5b50565b600081519050610f5e81610f38565b92915050565b600060208284031215610f7a57610f79610a81565b5b6000610f8884828501610f4f565b91505092915050565b7f5361666545524332303a204552433230206f7065726174696f6e20646964206e60008201527f6f74207375636365656400000000000000000000000000000000000000000000602082015250565b6000610fed602a83610dd7565b9150610ff882610f91565b604082019050919050565b6000602082019050818103600083015261101c81610fe0565b9050919050565b7f416464726573733a20696e73756666696369656e742062616c616e636520666f60008201527f722063616c6c0000000000000000000000000000000000000000000000000000602082015250565b600061107f602683610dd7565b915061108a82611023565b604082019050919050565b600060208201905081810360008301526110ae81611072565b9050919050565b600081519050919050565b60005b838110156110de5780820151818401526020810190506110c3565b60008484015250505050565b60006110f5826110b5565b6110ff8185610e54565b935061110f8185602086016110c0565b80840191505092915050565b600061112782846110ea565b915081905092915050565b7f416464726573733a2063616c6c20746f206e6f6e2d636f6e7472616374000000600082015250565b6000611168601d83610dd7565b915061117382611132565b602082019050919050565b600060208201905081810360008301526111978161115b565b9050919050565b600081519050919050565b6000601f19601f8301169050919050565b60006111c58261119e565b6111cf8185610dd7565b93506111df8185602086016110c0565b6111e8816111a9565b840191505092915050565b6000602082019050818103600083015261120d81846111ba565b90509291505056fea26469706673582212203e6b3ef7f3ab0b0630f7b87af2da6a0422ea4aa6afbafe11097ef1a8f9e6e45364736f6c63430008140033",
  "linkReferences": {},
  "deployedLinkReferences": {}
}