{
  "_format": "hh-sol-artifact-1",
  "contractName": "MycelPresale",
  "sourceName": "contracts/staking/MycelPresale.sol",
  "abi": [
    {
      "inputs": [
        {
          "internalType": "address",
          "name": "_mycelToken",
          "type": "address"
        },
        {
          "internalType": "address",
          "name": "_wethToken",
          "type": "address"
        },
        {
          "internalType": "address",
          "name": "_liquidityWallet",
          "type": "address"
        },
        {
          "internalType": "address",
          "name": "_teamWallet",
          "type": "address"
        }
      ],
      "stateMutability": "nonpayable",
      "type": "constructor"
    },
    {
      "anonymous": false,
      "inputs": [
        {
          "indexed": false,
          "internalType": "address",
          "name": "token",
          "type": "address"
        },
        {
          "indexed": false,
          "internalType": "uint256",
          "name": "amount",
          "type": "uint256"
        }
      ],
      "name": "EmergencyWithdraw",
      "type": "event"
    },
    {
      "anonymous": false,
      "inputs": [
        {
          "indexed": false,
          "internalType": "uint256",
          "name": "liquidityAmount",
          "type": "uint256"
        },
        {
          "indexed": false,
          "internalType": "uint256",
          "name": "teamAmount",
          "type": "uint256"
        }
      ],
      "name": "FundsDistributed",
      "type": "event"
    },
    {
      "anonymous": false,
      "inputs": [
        {
          "indexed": true,
          "internalType": "address",
          "name": "previousOwner",
          "type": "address"
        },
        {
          "indexed": true,
          "internalType": "address",
          "name": "newOwner",
          "type": "address"
        }
      ],
      "name": "OwnershipTransferred",
      "type": "event"
    },
    {
      "anonymous": false,
      "inputs": [
        {
          "indexed": false,
          "internalType": "uint256",
          "name": "totalRaised",
          "type": "uint256"
        },
        {
          "indexed": false,
          "internalType": "uint256",
          "name": "tokensSold",
          "type": "uint256"
        }
      ],
      "name": "PresaleFinalized",
      "type": "event"
    },
    {
      "anonymous": false,
      "inputs": [
        {
          "indexed": false,
          "internalType": "uint256",
          "name": "startTime",
          "type": "uint256"
        }
      ],
      "name": "PresaleStarted",
      "type": "event"
    },
    {
      "anonymous": false,
      "inputs": [
        {
          "indexed": true,
          "internalType": "address",
          "name": "buyer",
          "type": "address"
        },
        {
          "indexed": false,
          "internalType": "uint256",
          "name": "wethAmount",
          "type": "uint256"
        },
        {
          "indexed": false,
          "internalType": "uint256",
          "name": "tokenAmount",
          "type": "uint256"
        }
      ],
      "name": "TokensPurchased",
      "type": "event"
    },
    {
      "inputs": [],
      "name": "LIQUIDITY_SHARE",
      "outputs": [
        {
          "internalType": "uint256",
          "name": "",
          "type": "uint256"
        }
      ],
      "stateMutability": "view",
      "type": "function"
    },
    {
      "inputs": [],
      "name": "TEAM_SHARE",
      "outputs": [
        {
          "internalType": "uint256",
          "name": "",
          "type": "uint256"
        }
      ],
      "stateMutability": "view",
      "type": "function"
    },
    {
      "inputs": [],
      "name": "TOKEN_PRICE",
      "outputs": [
        {
          "internalType": "uint256",
          "name": "",
          "type": "uint256"
        }
      ],
      "stateMutability": "view",
      "type": "function"
    },
    {
      "inputs": [],
      "name": "TOTAL_TOKENS",
      "outputs": [
        {
          "internalType": "uint256",
          "name": "",
          "type": "uint256"
        }
      ],
      "stateMutability": "view",
      "type": "function"
    },
    {
      "inputs": [
        {
          "internalType": "uint256",
          "name": "wethAmount",
          "type": "uint256"
        }
      ],
      "name": "buyTokens",
      "outputs": [],
      "stateMutability": "nonpayable",
      "type": "function"
    },
    {
      "inputs": [
        {
          "internalType": "address",
          "name": "",
          "type": "address"
        }
      ],
      "name": "contributions",
      "outputs": [
        {
          "internalType": "uint256",
          "name": "",
          "type": "uint256"
        }
      ],
      "stateMutability": "view",
      "type": "function"
    },
    {
      "inputs": [],
      "name": "emergencyWithdraw",
      "outputs": [],
      "stateMutability": "nonpayable",
      "type": "function"
    },
    {
      "inputs": [],
      "name": "finalizePresale",
      "outputs": [],
      "stateMutability": "nonpayable",
      "type": "function"
    },
    {
      "inputs": [],
      "name": "getPresaleInfo",
      "outputs": [
        {
          "internalType": "bool",
          "name": "active",
          "type": "bool"
        },
        {
          "internalType": "uint256",
          "name": "price",
          "type": "uint256"
        },
        {
          "internalType": "uint256",
          "name": "sold",
          "type": "uint256"
        },
        {
          "internalType": "uint256",
          "name": "total",
          "type": "uint256"
        },
        {
          "internalType": "uint256",
          "name": "raised",
          "type": "uint256"
        },
        {
          "internalType": "uint256",
          "name": "remaining",
          "type": "uint256"
        },
        {
          "internalType": "uint256",
          "name": "minPurchase",
          "type": "uint256"
        }
      ],
      "stateMutability": "view",
      "type": "function"
    },
    {
      "inputs": [
        {
          "internalType": "uint256",
          "name": "wethAmount",
          "type": "uint256"
        }
      ],
      "name": "getTokenAmountForWETH",
      "outputs": [
        {
          "internalType": "uint256",
          "name": "",
          "type": "uint256"
        }
      ],
      "stateMutability": "pure",
      "type": "function"
    },
    {
      "inputs": [
        {
          "internalType": "address",
          "name": "user",
          "type": "address"
        }
      ],
      "name": "getUserContribution",
      "outputs": [
        {
          "internalType": "uint256",
          "name": "",
          "type": "uint256"
        }
      ],
      "stateMutability": "view",
      "type": "function"
    },
    {
      "inputs": [],
      "name": "liquidityWallet",
      "outputs": [
        {
          "internalType": "address",
          "name": "",
          "type": "address"
        }
      ],
      "stateMutability": "view",
      "type": "function"
    },
    {
      "inputs": [],
      "name": "mycelToken",
      "outputs": [
        {
          "internalType": "contract IERC20",
          "name": "",
          "type": "address"
        }
      ],
      "stateMutability": "view",
      "type": "function"
    },
    {
      "inputs": [],
      "name": "owner",
      "outputs": [
        {
          "internalType": "address",
          "name": "",
          "type": "address"
        }
      ],
      "stateMutability": "view",
      "type": "function"
    },
    {
      "inputs": [],
      "name": "presaleActive",
      "outputs": [
        {
          "internalType": "bool",
          "name": "",
          "type": "bool"
        }
      ],
      "stateMutability": "view",
      "type": "function"
    },
    {
      "inputs": [],
      "name": "renounceOwnership",
      "outputs": [],
      "stateMutability": "nonpayable",
      "type": "function"
    },
    {
      "inputs": [],
      "name": "startPresale",
      "outputs": [],
      "stateMutability": "nonpayable",
      "type": "function"
    },
    {
      "inputs": [],
      "name": "teamWallet",
      "outputs": [
        {
          "internalType": "address",
          "name": "",
          "type": "address"
        }
      ],
      "stateMutability": "view",
      "type": "function"
    },
    {
      "inputs": [],
      "name": "tokensSold",
      "outputs": [
        {
          "internalType": "uint256",
          "name": "",
          "type": "uint256"
        }
      ],
      "stateMutability": "view",
      "type": "function"
    },
    {
      "inputs": [],
      "name": "totalRaised",
      "outputs": [
        {
          "internalType": "uint256",
          "name": "",
          "type": "uint256"
        }
      ],
      "stateMutability": "view",
      "type": "function"
    },
    {
      "inputs": [
        {
          "internalType": "address",
          "name": "newOwner",
          "type": "address"
        }
      ],
      "name": "transferOwnership",
      "outputs": [],
      "stateMutability": "nonpayable",
      "type": "function"
    },
    {
      "inputs": [
        {
          "internalType": "address",
          "name": "_liquidityWallet",
          "type": "address"
        },
        {
          "internalType": "address",
          "name": "_teamWallet",
          "type": "address"
        }
      ],
      "name": "updateWallets",
      "outputs": [],
      "stateMutability": "nonpayable",
      "type": "function"
    },
    {
      "inputs": [],
      "name": "wethToken",
      "outputs": [
        {
          "internalType": "contract IERC20",
          "name": "",
          "type": "address"
        }
      ],
      "stateMutability": "view",
      "type": "function"
    }
  ],
  "bytecode": "0x60806040523480156200001157600080fd5b50604051620028d2380380620028d28339818101604052810190620000379190620002a2565b620000576200004b6200016c60201b60201c565b6200017460201b60201c565b6001808190555083600260006101000a81548173ffffffffffffffffffffffffffffffffffffffff021916908373ffffffffffffffffffffffffffffffffffffffff16021790555082600360006101000a81548173ffffffffffffffffffffffffffffffffffffffff021916908373ffffffffffffffffffffffffffffffffffffffff16021790555081600460006101000a81548173ffffffffffffffffffffffffffffffffffffffff021916908373ffffffffffffffffffffffffffffffffffffffff16021790555080600560006101000a81548173ffffffffffffffffffffffffffffffffffffffff021916908373ffffffffffffffffffffffffffffffffffffffff1602179055505050505062000314565b600033905090565b60008060009054906101000a900473ffffffffffffffffffffffffffffffffffffffff169050816000806101000a81548173ffffffffffffffffffffffffffffffffffffffff021916908373ffffffffffffffffffffffffffffffffffffffff1602179055508173ffffffffffffffffffffffffffffffffffffffff168173ffffffffffffffffffffffffffffffffffffffff167f8be0079c531659141344cd1fd0a4f28419497f9722a3daafe3b4186f6b6457e060405160405180910390a35050565b600080fd5b600073ffffffffffffffffffffffffffffffffffffffff82169050919050565b60006200026a826200023d565b9050919050565b6200027c816200025d565b81146200028857600080fd5b50565b6000815190506200029c8162000271565b92915050565b60008060008060808587031215620002bf57620002be62000238565b5b6000620002cf878288016200028b565b9450506020620002e2878288016200028b565b9350506040620002f5878288016200028b565b925050606062000308878288016200028b565b91505092959194509250565b6125ae80620003246000396000f3fe608060405234801561001057600080fd5b506004361061014d5760003560e01c806359927044116100c3578063c5c4744c1161007c578063c5c4744c1461034e578063d2d8cb671461036c578063d46980161461038a578063db2e21bc146103a8578063e8ba854f146103b2578063f2fde38b146103ce5761014d565b806359927044146102aa578063715018a6146102c8578063767fa723146102d25780638da5cb5b146102f6578063a0a6e94014610314578063bb8b2b471461031e5761014d565b806342e94c901161011557806342e94c90146101d257806343270d56146102025780634b57b0be14610220578063518ab2a81461023e57806353135ca01461025c57806355217c1e1461027a5761014d565b806304c98b2b1461015257806305943a151461015c5780630b7abf771461017a57806326f4a4c0146101985780633610724e146101b6575b600080fd5b61015a6103ea565b005b61016461057f565b60405161017191906118b8565b60405180910390f35b610182610584565b60405161018f91906118b8565b60405180910390f35b6101a0610593565b6040516101ad9190611952565b60405180910390f35b6101d060048036038101906101cb919061199e565b6105b9565b005b6101ec60048036038101906101e79190611a09565b61094f565b6040516101f991906118b8565b60405180910390f35b61020a610967565b60405161021791906118b8565b60405180910390f35b61022861096c565b6040516102359190611952565b60405180910390f35b610246610992565b60405161025391906118b8565b60405180910390f35b610264610998565b6040516102719190611a51565b60405180910390f35b610294600480360381019061028f919061199e565b6109ab565b6040516102a191906118b8565b60405180910390f35b6102b26109d8565b6040516102bf9190611a7b565b60405180910390f35b6102d06109fe565b005b6102da610a12565b6040516102ed9796959493929190611a96565b60405180910390f35b6102fe610a7d565b60405161030b9190611a7b565b60405180910390f35b61031c610aa6565b005b61033860048036038101906103339190611a09565b610ab8565b60405161034591906118b8565b60405180910390f35b610356610b01565b60405161036391906118b8565b60405180910390f35b610374610b07565b60405161038191906118b8565b60405180910390f35b610392610b10565b60405161039f9190611a7b565b60405180910390f35b6103b0610b36565b005b6103cc60048036038101906103c79190611b05565b610e5e565b005b6103e860048036038101906103e39190611a09565b610fca565b005b6103f261104d565b600860009054906101000a900460ff1615610442576040517f08c379a000000000000000000000000000000000000000000000000000000000815260040161043990611ba2565b60405180910390fd5b6a013da329b6336471800000600260009054906101000a900473ffffffffffffffffffffffffffffffffffffffff1673ffffffffffffffffffffffffffffffffffffffff166370a08231306040518263ffffffff1660e01b81526004016104a99190611a7b565b602060405180830381865afa1580156104c6573d6000803e3d6000fd5b505050506040513d601f19601f820116820180604052508101906104ea9190611bd7565b101561052b576040517f08c379a000000000000000000000000000000000000000000000000000000000815260040161052290611c50565b60405180910390fd5b6001600860006101000a81548160ff0219169083151502179055507f350219912288aa2ab1c63b5922619564a732d06ab5d23696cafa1afe515304a04260405161057591906118b8565b60405180910390a1565b601e81565b6a013da329b633647180000081565b600260009054906101000a900473ffffffffffffffffffffffffffffffffffffffff1681565b6105c16110cb565b600860009054906101000a900460ff16610610576040517f08c379a000000000000000000000000000000000000000000000000000000000815260040161060790611cbc565b60405180910390fd5b60008111610653576040517f08c379a000000000000000000000000000000000000000000000000000000000815260040161064a90611d28565b60405180910390fd5b66038d7ea4c6800081101561069d576040517f08c379a000000000000000000000000000000000000000000000000000000000815260040161069490611d94565b60405180910390fd5b6106ec333083600360009054906101000a900473ffffffffffffffffffffffffffffffffffffffff1673ffffffffffffffffffffffffffffffffffffffff1661111a909392919063ffffffff16565b600064e8d4a51000670de0b6b3a7640000836107089190611de3565b6107129190611e54565b90506a013da329b63364718000008160065461072e9190611e85565b111561076f576040517f08c379a000000000000000000000000000000000000000000000000000000000815260040161076690611f05565b60405180910390fd5b80600660008282546107819190611e85565b92505081905550816007600082825461079a9190611e85565b9250508190555081600960003373ffffffffffffffffffffffffffffffffffffffff1673ffffffffffffffffffffffffffffffffffffffff16815260200190815260200160002060008282546107f09190611e85565b92505081905550600260009054906101000a900473ffffffffffffffffffffffffffffffffffffffff1673ffffffffffffffffffffffffffffffffffffffff1663a9059cbb33836040518363ffffffff1660e01b8152600401610854929190611f25565b6020604051808303816000875af1158015610873573d6000803e3d6000fd5b505050506040513d601f19601f820116820180604052508101906108979190611f7a565b6108d6576040517f08c379a00000000000000000000000000000000000000000000000000000000081526004016108cd90611ff3565b60405180910390fd5b3373ffffffffffffffffffffffffffffffffffffffff167f8fafebcaf9d154343dad25669bfa277f4fbacd7ac6b0c4fed522580e040a0f33838360405161091e929190612013565b60405180910390a26a013da329b633647180000060065410610943576109426111a3565b5b5061094c6114af565b50565b60096020528060005260406000206000915090505481565b604681565b600360009054906101000a900473ffffffffffffffffffffffffffffffffffffffff1681565b60065481565b600860009054906101000a900460ff1681565b600064e8d4a51000670de0b6b3a7640000836109c79190611de3565b6109d19190611e54565b9050919050565b600560009054906101000a900473ffffffffffffffffffffffffffffffffffffffff1681565b610a0661104d565b610a1060006114b8565b565b6000806000806000806000600860009054906101000a900460ff1664e8d4a510006006546a013da329b63364718000006007546006546a013da329b6336471800000610a5e919061203c565b66038d7ea4c68000965096509650965096509650965090919293949596565b60008060009054906101000a900473ffffffffffffffffffffffffffffffffffffffff16905090565b610aae61104d565b610ab66111a3565b565b6000600960008373ffffffffffffffffffffffffffffffffffffffff1673ffffffffffffffffffffffffffffffffffffffff168152602001908152602001600020549050919050565b60075481565b64e8d4a5100081565b600460009054906101000a900473ffffffffffffffffffffffffffffffffffffffff1681565b610b3e61104d565b600860009054906101000a900460ff16610b8d576040517f08c379a0000000000000000000000000000000000000000000000000000000008152600401610b8490611cbc565b60405180910390fd5b6000600860006101000a81548160ff0219169083151502179055506000600260009054906101000a900473ffffffffffffffffffffffffffffffffffffffff1673ffffffffffffffffffffffffffffffffffffffff166370a08231306040518263ffffffff1660e01b8152600401610c059190611a7b565b602060405180830381865afa158015610c22573d6000803e3d6000fd5b505050506040513d601f19601f82011682018060405250810190610c469190611bd7565b90506000811115610d0157610ca5610c5c610a7d565b82600260009054906101000a900473ffffffffffffffffffffffffffffffffffffffff1673ffffffffffffffffffffffffffffffffffffffff1661157c9092919063ffffffff16565b7f5fafa99d0643513820be26656b45130b01e1c03062e1266bf36f88cbd3bd9695600260009054906101000a900473ffffffffffffffffffffffffffffffffffffffff1682604051610cf8929190611f25565b60405180910390a15b6000600360009054906101000a900473ffffffffffffffffffffffffffffffffffffffff1673ffffffffffffffffffffffffffffffffffffffff166370a08231306040518263ffffffff1660e01b8152600401610d5e9190611a7b565b602060405180830381865afa158015610d7b573d6000803e3d6000fd5b505050506040513d601f19601f82011682018060405250810190610d9f9190611bd7565b90506000811115610e5a57610dfe610db5610a7d565b82600360009054906101000a900473ffffffffffffffffffffffffffffffffffffffff1673ffffffffffffffffffffffffffffffffffffffff1661157c9092919063ffffffff16565b7f5fafa99d0643513820be26656b45130b01e1c03062e1266bf36f88cbd3bd9695600360009054906101000a900473ffffffffffffffffffffffffffffffffffffffff1682604051610e51929190611f25565b60405180910390a15b5050565b610e6661104d565b600073ffffffffffffffffffffffffffffffffffffffff168273ffffffffffffffffffffffffffffffffffffffff1603610ed5576040517f08c379a0000000000000000000000000000000000000000000000000000000008152600401610ecc906120bc565b60405180910390fd5b600073ffffffffffffffffffffffffffffffffffffffff168173ffffffffffffffffffffffffffffffffffffffff1603610f44576040517f08c379a0000000000000000000000000000000000000000000000000000000008152600401610f3b90612128565b60405180910390fd5b81600460006101000a81548173ffffffffffffffffffffffffffffffffffffffff021916908373ffffffffffffffffffffffffffffffffffffffff16021790555080600560006101000a81548173ffffffffffffffffffffffffffffffffffffffff021916908373ffffffffffffffffffffffffffffffffffffffff1602179055505050565b610fd261104d565b600073ffffffffffffffffffffffffffffffffffffffff168173ffffffffffffffffffffffffffffffffffffffff1603611041576040517f08c379a0000000000000000000000000000000000000000000000000000000008152600401611038906121ba565b60405180910390fd5b61104a816114b8565b50565b611055611602565b73ffffffffffffffffffffffffffffffffffffffff16611073610a7d565b73ffffffffffffffffffffffffffffffffffffffff16146110c9576040517f08c379a00000000000000000000000000000000000000000000000000000000081526004016110c090612226565b60405180910390fd5b565b600260015403611110576040517f08c379a000000000000000000000000000000000000000000000000000000000815260040161110790612292565b60405180910390fd5b6002600181905550565b61119d846323b872dd60e01b85858560405160240161113b939291906122b2565b604051602081830303815290604052907bffffffffffffffffffffffffffffffffffffffffffffffffffffffff19166020820180517bffffffffffffffffffffffffffffffffffffffffffffffffffffffff838183161783525050505061160a565b50505050565b600860009054906101000a900460ff166111f2576040517f08c379a00000000000000000000000000000000000000000000000000000000081526004016111e990611cbc565b60405180910390fd5b6000600860006101000a81548160ff0219169083151502179055506000600360009054906101000a900473ffffffffffffffffffffffffffffffffffffffff1673ffffffffffffffffffffffffffffffffffffffff166370a08231306040518263ffffffff1660e01b815260040161126a9190611a7b565b602060405180830381865afa158015611287573d6000803e3d6000fd5b505050506040513d601f19601f820116820180604052508101906112ab9190611bd7565b9050600060646046836112be9190611de3565b6112c89190611e54565b9050600081836112d8919061203c565b9050611349600460009054906101000a900473ffffffffffffffffffffffffffffffffffffffff1683600360009054906101000a900473ffffffffffffffffffffffffffffffffffffffff1673ffffffffffffffffffffffffffffffffffffffff1661157c9092919063ffffffff16565b6113b8600560009054906101000a900473ffffffffffffffffffffffffffffffffffffffff1682600360009054906101000a900473ffffffffffffffffffffffffffffffffffffffff1673ffffffffffffffffffffffffffffffffffffffff1661157c9092919063ffffffff16565b7f40d8c854b6d5329fd5fccae04f5a931d7529963fbab81aced7337394e737cb4d82826040516113e9929190612013565b60405180910390a17fedfde254cb8ed39d650c9a34251c59d6817fae4cc876cc2ce76669976cf102ee600754600654604051611426929190612013565b60405180910390a160006006546a013da329b6336471800000611449919061203c565b905060008111156114a9576114a861145f610a7d565b82600260009054906101000a900473ffffffffffffffffffffffffffffffffffffffff1673ffffffffffffffffffffffffffffffffffffffff1661157c9092919063ffffffff16565b5b50505050565b60018081905550565b60008060009054906101000a900473ffffffffffffffffffffffffffffffffffffffff169050816000806101000a81548173ffffffffffffffffffffffffffffffffffffffff021916908373ffffffffffffffffffffffffffffffffffffffff1602179055508173ffffffffffffffffffffffffffffffffffffffff168173ffffffffffffffffffffffffffffffffffffffff167f8be0079c531659141344cd1fd0a4f28419497f9722a3daafe3b4186f6b6457e060405160405180910390a35050565b6115fd8363a9059cbb60e01b848460405160240161159b929190611f25565b604051602081830303815290604052907bffffffffffffffffffffffffffffffffffffffffffffffffffffffff19166020820180517bffffffffffffffffffffffffffffffffffffffffffffffffffffffff838183161783525050505061160a565b505050565b600033905090565b600061166c826040518060400160405280602081526020017f5361666545524332303a206c6f772d6c6576656c2063616c6c206661696c65648152508573ffffffffffffffffffffffffffffffffffffffff166116d29092919063ffffffff16565b905060008151148061168e57508080602001905181019061168d9190611f7a565b5b6116cd576040517f08c379a00000000000000000000000000000000000000000000000000000000081526004016116c49061235b565b60405180910390fd5b505050565b60606116e184846000856116ea565b90509392505050565b60608247101561172f576040517f08c379a0000000000000000000000000000000000000000000000000000000008152600401611726906123ed565b60405180910390fd5b6000808673ffffffffffffffffffffffffffffffffffffffff168587604051611758919061247e565b60006040518083038185875af1925050503d8060008114611795576040519150601f19603f3d011682016040523d82523d6000602084013e61179a565b606091505b50915091506117ab878383876117b7565b92505050949350505050565b60608315611819576000835103611811576117d18561182c565b611810576040517f08c379a0000000000000000000000000000000000000000000000000000000008152600401611807906124e1565b60405180910390fd5b5b829050611824565b611823838361184f565b5b949350505050565b6000808273ffffffffffffffffffffffffffffffffffffffff163b119050919050565b6000825111156118625781518083602001fd5b806040517f08c379a00000000000000000000000000000000000000000000000000000000081526004016118969190612556565b60405180910390fd5b6000819050919050565b6118b28161189f565b82525050565b60006020820190506118cd60008301846118a9565b92915050565b600073ffffffffffffffffffffffffffffffffffffffff82169050919050565b6000819050919050565b600061191861191361190e846118d3565b6118f3565b6118d3565b9050919050565b600061192a826118fd565b9050919050565b600061193c8261191f565b9050919050565b61194c81611931565b82525050565b60006020820190506119676000830184611943565b92915050565b600080fd5b61197b8161189f565b811461198657600080fd5b50565b60008135905061199881611972565b92915050565b6000602082840312156119b4576119b361196d565b5b60006119c284828501611989565b91505092915050565b60006119d6826118d3565b9050919050565b6119e6816119cb565b81146119f157600080fd5b50565b600081359050611a03816119dd565b92915050565b600060208284031215611a1f57611a1e61196d565b5b6000611a2d848285016119f4565b91505092915050565b60008115159050919050565b611a4b81611a36565b82525050565b6000602082019050611a666000830184611a42565b92915050565b611a75816119cb565b82525050565b6000602082019050611a906000830184611a6c565b92915050565b600060e082019050611aab600083018a611a42565b611ab860208301896118a9565b611ac560408301886118a9565b611ad260608301876118a9565b611adf60808301866118a9565b611aec60a08301856118a9565b611af960c08301846118a9565b98975050505050505050565b60008060408385031215611b1c57611b1b61196d565b5b6000611b2a858286016119f4565b9250506020611b3b858286016119f4565b9150509250929050565b600082825260208201905092915050565b7f50726573616c6520616c72656164792061637469766500000000000000000000600082015250565b6000611b8c601683611b45565b9150611b9782611b56565b602082019050919050565b60006020820190508181036000830152611bbb81611b7f565b9050919050565b600081519050611bd181611972565b92915050565b600060208284031215611bed57611bec61196d565b5b6000611bfb84828501611bc2565b91505092915050565b7f496e73756666696369656e7420746f6b656e7320666f722070726573616c6500600082015250565b6000611c3a601f83611b45565b9150611c4582611c04565b602082019050919050565b60006020820190508181036000830152611c6981611c2d565b9050919050565b7f50726573616c65206e6f74206163746976650000000000000000000000000000600082015250565b6000611ca6601283611b45565b9150611cb182611c70565b602082019050919050565b60006020820190508181036000830152611cd581611c99565b9050919050565b7f4e6f20574554482073656e740000000000000000000000000000000000000000600082015250565b6000611d12600c83611b45565b9150611d1d82611cdc565b602082019050919050565b60006020820190508181036000830152611d4181611d05565b9050919050565b7f4d696e696d756d20707572636861736520697320302e30303120574554480000600082015250565b6000611d7e601e83611b45565b9150611d8982611d48565b602082019050919050565b60006020820190508181036000830152611dad81611d71565b9050919050565b7f4e487b7100000000000000000000000000000000000000000000000000000000600052601160045260246000fd5b6000611dee8261189f565b9150611df98361189f565b9250828202611e078161189f565b91508282048414831517611e1e57611e1d611db4565b5b5092915050565b7f4e487b7100000000000000000000000000000000000000000000000000000000600052601260045260246000fd5b6000611e5f8261189f565b9150611e6a8361189f565b925082611e7a57611e79611e25565b5b828204905092915050565b6000611e908261189f565b9150611e9b8361189f565b9250828201905080821115611eb357611eb2611db4565b5b92915050565b7f4e6f7420656e6f75676820746f6b656e73206c65667400000000000000000000600082015250565b6000611eef601683611b45565b9150611efa82611eb9565b602082019050919050565b60006020820190508181036000830152611f1e81611ee2565b9050919050565b6000604082019050611f3a6000830185611a6c565b611f4760208301846118a9565b9392505050565b611f5781611a36565b8114611f6257600080fd5b50565b600081519050611f7481611f4e565b92915050565b600060208284031215611f9057611f8f61196d565b5b6000611f9e84828501611f65565b91505092915050565b7f546f6b656e207472616e73666572206661696c65640000000000000000000000600082015250565b6000611fdd601583611b45565b9150611fe882611fa7565b602082019050919050565b6000602082019050818103600083015261200c81611fd0565b9050919050565b600060408201905061202860008301856118a9565b61203560208301846118a9565b9392505050565b60006120478261189f565b91506120528361189f565b925082820390508181111561206a57612069611db4565b5b92915050565b7f496e76616c6964206c69717569646974792077616c6c65740000000000000000600082015250565b60006120a6601883611b45565b91506120b182612070565b602082019050919050565b600060208201905081810360008301526120d581612099565b9050919050565b7f496e76616c6964207465616d2077616c6c657400000000000000000000000000600082015250565b6000612112601383611b45565b915061211d826120dc565b602082019050919050565b6000602082019050818103600083015261214181612105565b9050919050565b7f4f776e61626c653a206e6577206f776e657220697320746865207a65726f206160008201527f6464726573730000000000000000000000000000000000000000000000000000602082015250565b60006121a4602683611b45565b91506121af82612148565b604082019050919050565b600060208201905081810360008301526121d381612197565b9050919050565b7f4f776e61626c653a2063616c6c6572206973206e6f7420746865206f776e6572600082015250565b6000612210602083611b45565b915061221b826121da565b602082019050919050565b6000602082019050818103600083015261223f81612203565b9050919050565b7f5265656e7472616e637947756172643a207265656e7472616e742063616c6c00600082015250565b600061227c601f83611b45565b915061228782612246565b602082019050919050565b600060208201905081810360008301526122ab8161226f565b9050919050565b60006060820190506122c76000830186611a6c565b6122d46020830185611a6c565b6122e160408301846118a9565b949350505050565b7f5361666545524332303a204552433230206f7065726174696f6e20646964206e60008201527f6f74207375636365656400000000000000000000000000000000000000000000602082015250565b6000612345602a83611b45565b9150612350826122e9565b604082019050919050565b6000602082019050818103600083015261237481612338565b9050919050565b7f416464726573733a20696e73756666696369656e742062616c616e636520666f60008201527f722063616c6c0000000000000000000000000000000000000000000000000000602082015250565b60006123d7602683611b45565b91506123e28261237b565b604082019050919050565b60006020820190508181036000830152612406816123ca565b9050919050565b600081519050919050565b600081905092915050565b60005b83811015612441578082015181840152602081019050612426565b60008484015250505050565b60006124588261240d565b6124628185612418565b9350612472818560208601612423565b80840191505092915050565b600061248a828461244d565b915081905092915050565b7f416464726573733a2063616c6c20746f206e6f6e2d636f6e7472616374000000600082015250565b60006124cb601d83611b45565b91506124d682612495565b602082019050919050565b600060208201905081810360008301526124fa816124be565b9050919050565b600081519050919050565b6000601f19601f8301169050919050565b600061252882612501565b6125328185611b45565b9350612542818560208601612423565b61254b8161250c565b840191505092915050565b60006020820190508181036000830152612570818461251d565b90509291505056fea26469706673582212209873e854757cb1a40f22a035af94e3437444a68c7ca3e5fc70a66248d7751a6864736f6c63430008140033",
  "linkReferences": {},
  "deployedLinkReferences": {}
}